:03000000020026D5
:0C002600787FE4F6D8FD75812D02006D96
:1001B9003F065B4F666D7D077F6F777C395E79718E
:1001C9000040761E7038375C733E783D6750376E55
:0B01D900BF86DBCFE6EDFD87FFEF46A1
:1000030008120000000000000000080900000000C2
:07001300000000000111FFD5
:100260008F128D138B1485211585231685251785EF
:0602700027188529192260
:100147007580FF7F07120180AF08A8077401088038
:1001570002C333D8FCF5807F06120180741225088C
:10016700F8E69001B993F4F5807F0712018005083E
:08017700E508B40803E4F508F3
:01017F00225D
:10010900E4F593F594F591F592F595F596F5B1F534
:10011900B2F5B3F5B4F5C9F5CAF5CBF5CCF5E1F50A
:10012900E27580FF7F041201807F071201807580CC
:0E013900AF7F05120180E4F5807F0602018091
:10018000EF24FB601414601B14602224037026E526
:10019000A0541F4480F5A0801CE5A0541F44A0F586
:1001A000A08012E5A0541F44C0F5A08008E5A0542B
:0901B0001F44E0F5A053A01F223A
:1002A100538EBF53890F758B18758DFCC28FD28EFB
:0302B100D2AB22AB
:0E02C50000007F177ECD7D78DDFEDEFCDFFAC7
:0102D3002208
:10020800E8AEBEE5A487E5AE8CE68890E4BA86E55C
:10021800889DE5A78BE58C96006369616C6C6F7EA1
:0102280000D5
:10022900E52AB432061201E4E4F52AE52DB4E80D15
:0E023900E52CB4030812001EE4F52CF52D226E
:03001B000200B22E
:1000B200C0E0C0F0C083C082C0D075D000C000C014
:1000C20001C002C003C004C005C006C007E52AC3C0
:1000D20094325002052AC3E52D94E8E52C9403508E
:1000E20008052DE52D7002052C120147D007D00618
:1000F200D005D004D003D002D001D000D0D0D0821D
:07010200D083D0F0D0E03201
:1001E400E52B701FE4F520F521F522F523F524F520
:1001F40025F526F527F528F529FBFA7D03FC7F0272
:040204001202602260
:01001E0022BF
:1002B4001202D47BFF7A0279081202761202298094
:0102C400FB3E
:0C02D4001201091202A112028CD2AF220A
:030023000202E0F6
:0B02E000309902C299309802C2983297
:10028C00759850438E01438E0475D78F75D6FD43F8
:05029C008E10D2AC221F
:100276001202476010F5993099FDC299740129F967
:06028600E43AFA80EB22CD
:100032000202B4E493A3F8E493A34003F68001F22E
:1000420008DFF48029E493A3F85407240CC8C333CF
:10005200C4540F4420C8834004F456800146F6DF9E
:10006200E4800B0102040810204080900003E47E2B
:10007200019360BCA3FF543F30E509541FFEE49393
:10008200A360010ECF54C025E060A840B8E493A35A
:10009200FAE493A3F8E493A3C8C582C8CAC583CA85
:1000A200F0A3C8C582C8CAC583CADFE9DEE780BE3D
:01001A0000E5
:10024700BB010689828A83E0225002E722BBFE02B5
:09025700E32289828A83E49322E8
:00000001FF
