:03000000020026D5
:0C002600787FE4F6D8FD75816402006D5F
:100451003F065B4F666D7D077F6F777C395E7971F3
:100461000040761E7038375C733E783D6750376EBA
:0B047100BF86DBCFE6EDFD87FFEF4606
:10047C0008150000000000000000080C000000003F
:07048C00000000000114FF55
:1005A6008F158D168B17855918855B19855D1A85EC
:0605B6005F1B85611C22A1
:10023000120135F51590000112014EF516900002DD
:1002400012014EF51790000312014EF518900004AC
:1002500012014EF51990000512014EF51A90000694
:0E02600012014EF51B90000712014EF51C22F4
:1005BC008F0C8D0D8B0E854A0F854C10854E118539
:0605CC00501285521322BB
:1002AC007580FF7F071202E5AF08A807740108806C
:1002BC0002C333D8FCF5807F061202E574152508BD
:1002CC00F8E690045193F4F5807F071202E50508D7
:0802DC00E508B40803E4F5088D
:0102E40022F7
:1001E900740C2509F8E66011AF09A80774010880A5
:1001F90002C333D8FC420A8010AF09A8077401086A
:100209008002C333D8FCF4520AE50B650A600DE598
:100219000AF4F5807F041202E5850A0B0509E50950
:06022900B40803E4F5092E
:01022F0022AC
:1004CA00300005431D108003531DEFE51D651460C0
:0D04DA000B851D807F051202E5851D142293
:1004E700300105431D408003531DBFE51D651460A2
:0D04F7000B851D807F051202E5851D142276
:0E06AB0080828486888A8C81838587898B8DE6
:10062500E4FEC297EF1392A3EFC313FFD2970EBE5A
:0206350008F0CB
:0106370022A0
:10061100C2A700C29700D2A700120625AF05120695
:0406210025C2A72225
:10038C00E4FDC2A700C29700D2A700120625E4FF25
:10039C00C297EDC313FD30A303430580D2970FBF63
:1003AC0008EEC2A700C29700D29700C2A300D2A346
:0303BC0000AF058A
:0103BF00221B
:10063800EF75F00A84C454F0FEEF75F00A84EE25D5
:03064800F0FF229E
:0F066F00EFC4540F75F00AA4FEEF540F2EFF22B4
:0603F3008B538A5489556A
:1003F900E4FD7F8E120611E4FCEC9006AB93FFAB93
:1004090053AA54A9558C8275830012014EFD120618
:0C041900110CBC07E47D807F8E020611F0
:06019D008B538A548955C2
:1001A300E4FCEC9006B293FF12038CAB53AA54A960
:1001B300558C82758300EF12017B0CBC03E4E4FCD5
:1001C300AB53AA54A9558C8275830012014EFF12BA
:1001D300066FAB53AA54A9558C82758300EF1201A5
:0501E3007B0CBC03DBF6
:0101E80022F4
:04055A00D2A07F0AA2
:10055E00000000000000000000000000000000AEDF
:06056E00071FEE70EB22F6
:0F067E00D2A112055AC2A17F0A12055EC2A022A4
:10053E0012042512052C120504AD077F01120003CB
:0C054E00C2A112055AD2A17F0A02055E6C
:02042500AD0721
:10042700E4FCC2A07F0A12055EED30E704D2A1808A
:1004370002C2A17F0A12055ED2A0ED25E0FD7F0A68
:0904470012055E0CBC08DBC2A02A
:010450002289
:10050400E4FC12055AED25E0FD30A103430501C2C8
:0C051400A07F0A12055E0CBC08E8AF05D1
:0105200022B8
:0B05210012042512052CAF0312042564
:10052C0012055AA2A1E433FDC2A07F0A12055EAFE8
:01053C0005B9
:01053D00229B
:10000300C2A0EF24FF92A17F0A12055E12055AC215
:08001300A0D2A17F0A02055EE4
:0205D200AB0775
:1005D40012067E7F9012052112067E7F9112053E3F
:0205E400AF0561
:0105E60022F2
:1005E700AB0712067E7F9012042512052C7F43125B
:0505F700052102054E84
:10057400AB05AA04A90712067E7FA0120425120562
:090584002CAF0112052102054E05
:0205FC00AB074B
:1005FE0012067E7FA012052112067E7FA112053EF5
:02060E00AF0536
:0106100022C7
:0304930001620003
:1000B2007FFF75536375B00FC2C2C2C4A2C292B6AB
:1000C200A2C492B7E56214601414603B1460562413
:1000D20003705DEF640F60587562018053BF0F02B9
:1000E2008020EF44F0F5B0D2C2D2C4A2C292B6A22E
:1000F200C492B7AFB0756202EF24897005756304CC
:10010200802EE4F5628029EF640F60110564E564D6
:10011200D39464401BE4F5647562038013E4F564D0
:100122008563538007BF0F08856353E4F563F56267
:02013200AF53C9
:0101340022A8
:10026E00E4F593F594F591F592F595F596F5B1F5CE
:10027E00B2F5B3F5B4F5C9F5CAF5CBF5CCF5E1F5A4
:10028E00E27580FF7F041202E57F071202E575809A
:0E029E00AF7F051202E5E4F5807F060202E55F
:1002E500EF24FB601414601B14602224037026E5C0
:1002F500A0541F4480F5A0801CE5A0541F44A0F520
:10030500A08012E5A0541F44C0F5A08008E5A054C4
:090315001F44E0F5A053A01F22D3
:10064B00438E4053890F758B20758DD1C28FD28EFF
:03065B00D2AB22FD
:0E068D0000007F177ECD7D78DDFEDEFCDFFAFB
:01069B00223C
:0F0496000D240050592301010125000000000032
:0806B90012065E12031E80FB15
:10065E0012026E12064BD2AF7B007A00792502038E
:01066E00F398
:10031E00E523B4140612001EE4F523E531B40F06EE
:10032E001206C1E4F531E5306464452F700DFB7A99
:10033E0000792C12019DE4F52FF530E521B432063B
:07034E001204A6E4F52122D0
:03001B0002035588
:10035500C0E0C0D0E523C3941450020523E531C3A2
:10036500940F50020531C3E53094E8E52F9403500E
:10037500080530E5307002052FE521C3943250029F
:070385000521D0D0D0E032C9
:03001E000201E9F3
:0606C1001200B28F32228C
:1004A600E522701FE4F558F559F55AF55BF55CF54C
:1004B6005DF55EF55FF560F561FBFA7D03FC7F0295
:0404C6001205A62253
:0F069C00E4FF1205FC0FEFFD7C00E4FF02057484
:10058D00759850438E40538EFE53890F758BC075F1
:09059D008DFDC2ABD28ED2AC225E
:030023000203C015
:0B03C000C0E0C0D075D000C000C00736
:1003CB0030981CC298AF99EF6012E543C39410505C
:0F03DB000E74332543F8A60705438003754300CE
:0903EA00D007D000D0D0D0E032E1
:100032000206B9E493A3F8E493A34003F68001F225
:1000420008DFF48029E493A3F85407240CC8C333CF
:10005200C4540F4420C8834004F456800146F6DF9E
:10006200E4800B010204081020408090047CE47EAE
:10007200019360BCA3FF543F30E509541FFEE49393
:10008200A360010ECF54C025E060A840B8E493A35A
:10009200FAE493A3F8E493A3C8C582C8CAC583CA85
:1000A200F0A3C8C582C8CAC583CADFE9DEE780BE3D
:0104A5000056
:10013500BB010689828A83E0225002E722BBFE02C8
:09014500E32289828A83E49322FB
:10014E00BB010CE58229F582E5833AF583E0225066
:10015E0006E92582F8E622BBFE06E92582F8E222B0
:0D016E00E58229F582E5833AF583E49322CA
:10017B00F8BB010DE58229F582E5833AF583E8F0BA
:10018B00225006E92582C8F622BBFE05E92582C866
:02019B00F2224E
:00000001FF
