:0300000002001EDD
:0C001E00787FE4F6D8FD75812B020065A8
:10019E003F065B4F666D7D077F6F777C395E7971A9
:1001AE000040761E7038375C733E783D6750376E70
:0B01BE00BF86DBCFE6EDFD87FFEF46BC
:1000030008120000000000000000080900000000C2
:07001300000000000111FFD5
:1001ED008F128D138B148521158523168525178563
:0601FD00271885291922D4
:10012C007580FF7F07120165AF08A807740108806E
:10013C0002C333D8FCF5807F0612016574122508C2
:10014C00F8E690019E93F4F5807F0712016505088F
:08015C00E508B40803E4F5080E
:010164002278
:1000EE00E4F593F594F591F592F595F596F5B1F550
:1000FE00B2F5B3F5B4F5C9F5CAF5CBF5CCF5E1F526
:10010E00E27580FF7F041201657F0712016575801D
:0E011E00AF7F05120165E4F5807F06020165E2
:10016500EF24FB601414601B14602224037026E541
:10017500A0541F4480F5A0801CE5A0541F44A0F5A1
:10018500A08012E5A0541F44C0F5A08008E5A05446
:090195001F44E0F5A053A01F2255
:10020300538EBF53890F758B18758DFCC28FD28E99
:03021300D2AB2249
:0E02160000007F177ECD7D78DDFEDEFCDFFA76
:0102240022B7
:08023A0012023112022580FBC3
:090231001200EE120203D2AF220A
:0C022500E52AB432061201C9E4F52A22D1
:03001B000200AA36
:1000AA00C0E0C0F0C083C082C0D075D000C000C01C
:1000BA0001C002C003C004C005C006C007E52AC3C8
:1000CA0094325002052A12012CD007D006D005D04E
:1000DA0004D003D002D001D000D0D0D082D083D0B7
:0400EA00F0D0E03240
:1001C900E52B701FE4F520F521F522F523F524F53B
:1001D90025F526F527F528F529FBFA7D03FC7F028D
:0401E9001201ED22F0
:10002A0002023AE493A3F8E493A34003F68001F2B0
:10003A0008DFF48029E493A3F85407240CC8C333D7
:10004A00C4540F4420C8834004F456800146F6DFA6
:10005A00E4800B0102040810204080900003E47E33
:10006A00019360BCA3FF543F30E509541FFEE4939B
:10007A00A360010ECF54C025E060A840B8E493A362
:10008A00FAE493A3F8E493A3C8C582C8CAC583CA8D
:10009A00F0A3C8C582C8CAC583CADFE9DEE780BE45
:01001A0000E5
:00000001FF
