:0300000002028E6B
:0C028E00787FE4F6D8FD7581200202D5CF
:10000300E4F593F594F591F592F595F596F5B1F53B
:10001300B2F5B3F5B4F5C9F5CAF5CBF5CCF5E1F511
:10002300E27580FF7F04120411E4FF12041175804E
:10003300AF7F05120411E4FF120411E4F5807F067B
:10004300120411E4FF1204117580FF7F07120411DB
:0E005300E4FF1204111204C81204D8D2AF2226
:10041100EF24FC601114601714601D14602324077D
:10042100702753A01F22E5A0541F4480F5A022E5A8
:10043100A0541F44A0F5A022E5A0541F44C0F5A07C
:0A04410022E5A0541F44E0F5A022BC
:0604F30000007F27DFFE80
:0104F90022E0
:1004C800538EFB75D71875D6FC438E1043AF0422A4
:1004D800538EBF53890FE4F58BF58DC28FC28E22E0
:10049A00120003300007C2001203D38F133001F396
:0704AA00C20112047680EC90
:0300630002031A7B
:10031A00C0E0C0F0C083C082C0D075D000C000C0A9
:0D032A0001C002C003C004C005C006C0072A
:100337000512E51270020511D39430E5119475404A
:100347000675110075120012038EAE11AF127C03F1
:100357007DE812022BED4C7002D200AE11AF127C79
:0C036700007D5A12022BED4C7002D201F6
:10037300D007D006D005D004D003D002D001D000DE
:0B038300D0D0D082D083D0F0D0E03288
:10047600E51375F0648475F00A8485F009E5137553
:10048600F00A8475F00A8485F00AE51375F00A848B
:0404960085F00B22C0
:10044B003F065B4F666D7D077F6F777C395E7971F9
:10045B000040761E7038375C733E783D6750376EC0
:0B046B00BF86DBCFE6EDFD87FFEF460C
:0A04E80008090000000000000000F9
:10038E007580FF7F07120411E4FF120411AF08A855
:10039E00077401088002C333D8FCF5807F0612046F
:1003AE0011E4FF12041174092508F8E690044B932A
:1003BE00F4F5807F07120411E4FF120411E508041E
:0403CE005407F508D3
:0103D2002208
:1004B100E4F515D2901204F3C2901204F30515E588
:0604C10015C3940640ED96
:0104C7002212
:1003D300C28EE4F58BF58DC28F1204B13091FDD23C
:1003E3008E309103308FFAC28E308F057514FF80E3
:1003F3001AAF8DEFAD8BFCEC1201717B967A4379CA
:0D0403008B783C1200661201AA8F14AF1412
:0104100022C9
:10006600EC4D6011E8497017ED33EC3304600DE494
:10007600FCFFFEFD22E933E8330470F80202161293
:1000860001E158046009E4CC248150062850090295
:10009600022028400302021DC0E0EB4A7044B980EA
:1000A60006D0E0FB02020CEF4E701CBD8008EBFF91
:1000B600EAFEE9FD80EBE98DF0A4FEE5F002014FD2
:1000C600E9CDF9EAFEEBFFEF89F0A4FCE5F0CE8975
:1000D600F0A42EFFE435F0CD89F0A42DFEE435F032
:1000E6008067EF4E7005BD80D780C3EF8BF0A4AC60
:1000F600F0EE8BF0A42CFCE435F0F8EF8AF0A42C9B
:10010600E5F038FCE433CB8DF0A42CFCE5F03BF8AD
:10011600EE8AF0A42CFCE5F038F8E433CF89F0A49D
:100126002CFCE5F038CF3400CE89F0A42FFFE5F0A3
:100136003EFEE433C98DF0A42EFEE5F039CD8AF0FB
:10014600A42FFFE5F03EFEE43DFD33D0E0FB500773
:100156000BBB000F020220EC2CFCEF33FFEE33FE4C
:06016600ED33FD0201F87B
:10016C0075F020800E75F010800575F0087D007E0E
:10017C00007F003392D530D503120280EC3340104F
:10018C00EF33FFEE33FEED33FDEC33FCD5F0ED2217
:0E019C00E5F0247EA2D513CC92E7CDCEFF2253
:1001AA00EDD2E7CD33EC3392D524814006E4FFFE4D
:1001BA00FDFC22FCE4CFCECDCC24E0501174FF80AC
:1001CA00EDC3CC13CCCD13CDCE13CECF13CF047049
:0701DA00F030D5DE020280C7
:1001E100E9D2E7C933E833F892D5EDD2E7CD33EC64
:0701F10033FC5002B2D522DD
:1001F800EC30E7100FBF000C0EBE00080DBD000468
:100208000BEB6014A2D5EB13FCED92E7FD2274FF13
:10021800FCFDFEFF22E480F8A2D574FF13FC7D806C
:03022800E480EF80
:10029A0002049AE493A3F8E493A34003F68001F2DC
:1002AA0008DFF48029E493A3F85407240CC8C33365
:1002BA00C4540F4420C8834004F456800146F6DF34
:1002CA00E4800B01020408102040809004E8E47ED8
:1002DA00019360BCA3FF543F30E509541FFEE49329
:1002EA00A360010ECF54C025E060A840B8E493A3F0
:1002FA00FAE493A3F8E493A3C8C582C8CAC583CA1B
:10030A00F0A3C8C582C8CAC583CADFE9DEE780BED2
:0104F2000009
:10022B00BC000BBE0029EF8DF084FFADF022E4CCB7
:10023B00F875F008EF2FFFEE33FEEC33FCEE9DEC80
:10024B00984005FCEE9DFE0FD5F0E9E4CEFD22EDC6
:10025B00F8F5F0EE8420D21CFEADF075F008EF2F10
:10026B00FFED33FD4007985006D5F0F222C398FD01
:05027B000FD5F0EA229E
:0E028000C3E49FFFE49EFEE49DFDE49CFC228F
:00000001FF
