:0300000002076C88
:0C076C00787FE4F6D8FD75813C0207B3ED
:1008F400E4F594F593F592F591F596F595F5B2F541
:10090400B1F5B4F5B3F5CAF5C9F5CCF5CBF5E2F517
:10091400E1F5807F041209DAE4FF1209DA7580FF39
:100924007F071209DAE4FF1209DA7F061209DAE412
:10093400FF1209DA7580AF7F051209DAE4FF1209A4
:07094400DA120BA9D2AF2269
:1009DA00EF603224FB601314601914601F24037043
:1009EA0027E5A0541F4480F5A022E5A0541F44A087
:1009FA00F5A022E5A0541F44C0F5A022E5A0541F8B
:090A0A0044E0F5A02253A01F22D4
:100BA900538EBF53890F758B18758DFCC28FD28EEA
:030BB900D2AB229A
:100497007508637509FF75B00FC2C2C2C4A2C292C4
:1004A700B6A2C492B7E5B0540FF509E53A14601F38
:1004B70014607714700302055F240360030205705C
:1004C700E509640F7003020570753A01020570E5CE
:1004D70009B40F02804FE50944F0F5B0D2C2D2C487
:1004E700A2C292B6A2C492B785B009753A02E509CD
:1004F7002485601824FE601914601B24C7601C241F
:10050700FC601D2444701E753B04805D753B0580AF
:1005170058753B068053753B07804E753B088049ED
:10052700753B098044E4F53A803FE509640F602094
:10053700E53C2401FFE433FE7C007DFF1203FE8DC2
:100547003CE53CC394644021E4F53C753A038019CB
:10055700E4F53C853B08800DE509640F600BE53B3E
:0B0567002414F508E4F53BF53AAF085A
:010572002266
:0D0AD70008320000000000000000012FFFA9
:100A130030040FA8077401088002C333D8FC4230A6
:100A2300800EA8077401088002C333D8FCF4523047
:100A3300E52F65306012E530F4F5807F041209DAA2
:080A4300E4FF1209DA85302FEF
:010A4B002288
:1000030074322531F8E624FF9204AF31120A13E566
:0600130031045407F53131
:0100190022C4
:100B7A00E4FEEE6F600874322EF8E4F680067432F2
:080B8A002EF876010EBE03EA0D
:010B92002240
:100AE40003280000000324000000012B1A032C003B
:020AF400000000
:100A4C001208F412094B120BC7120BBCAF27120B76
:100A5C007AA202E433F536A202B3E433F53730015F
:100A6C0005C2011206CE300005C200120573120633
:030A7C002380EBE9
:03001B0002088058
:10088000C0E0C0F0C083C082C0D075D000C000C03E
:0D08900001C002C003C004C005C006C007BF
:10089D00E5222401FFE43521FE7C757D301203FE37
:1008AD008C218D22120995120003AE21AF227C00FE
:1008BD007D0F1203FEED4C7002D201AE21AF227CF2
:0C08CD00037DE81203FEED4C7002D20027
:1008D900D007D006D005D004D003D002D001D00073
:0B08E900D0D0D082D083D0F0D0E0321D
:1006CE00120497EF24FB602424FD603014606A242A
:1006DE0005600302076BE5272401FFE433FE7C006F
:1006EE007D031203FE8D27AF27020B7AB202A20200
:1006FE00E433F536A202B3E433F53722E527B4012D
:10070E0019AF23EF3395E0FEEF2401FFE43EFE7CAC
:10071E00007D641204538D23802EE5276402703D04
:10072E00AF2BEF3395E0FEEF2401FFE43EFE7C009D
:10073E007D641204538D2B8021E527B4010D152302
:10074E00E523B49D03E4F523020BBCE527B4020DAB
:0D075E00152BE52BB49D03E4F52B120BC702
:01076B00226B
:10062300E52714603814606B240260030206CD755D
:100633000D00750E10750F007510107511008528CB
:1006430012E5292420F514E433F513751500852AE2
:10065300167B107A007D107C007F0C806A750D007C
:10066300750E10750F00751010AF24EF3395E0F57C
:10067300118F12AF25EF3395E0F5138F14AF26EFEB
:100683003395E0F5158F167B107A007D107C007F83
:100693000E8034750D00750E10750F00751010AFB8
:1006A3002CEF3395E0F5118F12AF2DEF3395E0F575
:1006B300138F14AF2EEF3395E0F5158F167B107A59
:0B06C300007D107C007F15120B9322BD
:1005730012094BC004C005C006C007AC23EC12022D
:10058300C6D003D002D001D000120025E4FBFA79D3
:10059300C878421201161202FAAB07AA067C007D44
:1005A30064120453A907300215AF2BEF3395E0FE15
:1005B300E9D39FEE6480F8748098401A8013AF2BC0
:1005C300EF3395E0FEC3E99FEE6480F874809850A2
:1005D300057539018003E4F5397C037DE8AF03AE8B
:1005E300021204537C007D0A1204538D287C007D83
:1005F30064AF03AE021204537C007D0A1204538DD0
:1006030029AE02AF037C007D0A1204537C007D0AED
:100613001204538D2A7B007A0079287D03020A7F16
:0B0BBC007B007A007924AD230207F8CB
:0B0BC7007B007A00792CAD2B0207F8B0
:1007F800C3ED648094805043EDF404FD75F00A1253
:10080800037BFF75F00A12037BAFF0900001EF1233
:1008180003DCED75F00A12037BAFF0900002EF12D3
:1008280003DC90000112039D700C900001741112FA
:1008380003DC7410800274110203CA74101203CA14
:10084800ED75F00A12037BFF75F00A12037BAFF017
:10085800900001EF1203DCED75F00A12037BAFF094
:10086800900002EF1203DC90000112039D700890C3
:08087800000174101203DC22E0
:060A7F008B088A09890AB8
:100A8500E4FFED14FEEFC39E501CAB08AA09A90AAA
:100A95008F8275830012039D700C8F82F58374100D
:060AA5001203DC0F80DCEF
:010AAB002228
:040B46007F057E00A9
:100B4A00EF1FAA0670011E4A600BE4FDEDC3940C68
:050B5A0050EE0D80F7D4
:010B5F002273
:020B2800A9071B
:100B2A00E4FBC294E9139294120B46D294E9C313DC
:0C0B3A00F90BBB08ED7F057E00020B4AA2
:100B6000E4FBC294ECC313FCD2943094034304809E
:090B7000120B460BBB08EBAF04AD
:010B79002259
:100B0100C203D2947F0C7E00120B4AC2947F507EA6
:100B110000120B4AD2947F0A7E00120B4AA29492D1
:060B210003120B46A203C3
:010B270022AB
:10094B00120B017FCC120B287F44120B28120B01C8
:10095B007FCC120B287FBE120B28120B60A907123B
:10096B000B60EFFE7C00E429FDEC3EFC1202C18F14
:10097B000B8E0A8D098C08E4FBFA79807841120200
:09098B001F8F0B8E0A8D098C08E8
:010994002240
:100AAC003F065B4F666D7D077F6F777C395E797192
:100ABC000040761E7038375C733E783D6750376E59
:0B0ACC00BF86DBCFE6EDFD87FFEF46A5
:0A0AF60008180000000000000000D6
:100995007580FF7F071209DAE4FF1209DAAF17A89D
:1009A500077401088002C333D8FCF5807F0612095D
:1009B500DAE4FF1209DA74182517F8E6900AAC9301
:1009C500F4F5807F071209DAE4FF1209DAE5170466
:0409D5005407F517B7
:0109D90022FB
:100B93008F188D198B1A850E1B85101C85121D85C8
:060BA300141E85161F223E
:10001E00020366E86480F8E933E83360110460F0A7
:10002E00ED33EC337009E8FCE9FDEAFEEBFF220448
:10003E0060DED3EB9FEA9EE99DE8C2E78CF0C2F743
:10004E0095F0400CE8CCF8E9CDF9EACEFAEBCFFB0F
:10005E0012033185D0F05804700320D5B3E8047034
:10006E00075002B2D502037092D5EC0460F7E4CCCF
:10007E00C0E0C398F8603B94186008400DD0E0FBD8
:10008E00020348E4FBFAC9FC8028E830E406E4C920
:10009E00FBE4CAFCE830E305E4C9CACBFCE854072C
:1000AE006010F8C3E913F9EA13FAEB13FBEC13FC37
:1000BE00D8F130F52FC3E49CFCEF9BFFEE9AFEEDDA
:1000CE0099FDD0E0FBEF4E4D4C701222DB03020384
:1000DE006DEC2CFCEF33FFEE33FEED33FDED30E730
:1000EE00EB020348EF2BFFEE3AFEED39FDD0E0FBBD
:1000FE0050130BBB0003020370ED13FDEE13FEEF66
:08010E0013FFEC13FC0203488F
:10011600EC4D6011E8497017ED33EC3304600DE4E3
:10012600FCFFFEFD22E933E8330470F80203661291
:10013600033158046009E4CC248150062850090292
:10014600037028400302036DC0E0EB4A7044B98097
:1001560006D0E0FB02035CEF4E701CBD8008EBFF8F
:10016600EAFEE9FD80EBE98DF0A4FEE5F00201FF71
:10017600E9CDF9EAFEEBFFEF89F0A4FCE5F0CE89C4
:10018600F0A42EFFE435F0CD89F0A42DFEE435F081
:100196008067EF4E7005BD80D780C3EF8BF0A4ACAF
:1001A600F0EE8BF0A42CFCE435F0F8EF8AF0A42CEA
:1001B600E5F038FCE433CB8DF0A42CFCE5F03BF8FD
:1001C600EE8AF0A42CFCE5F038F8E433CF89F0A4ED
:1001D6002CFCE5F038CF3400CE89F0A42FFFE5F0F3
:1001E6003EFEE433C98DF0A42EFEE5F039CD8AF04B
:1001F600A42FFFE5F03EFEE43DFD33D0E0FB5007C3
:100206000BBB000F020370EC2CFCEF33FFEE33FE4A
:06021600ED33FD02034878
:10021C00020370EC5D046005E85904700302036688
:10022C00120331580460F6EC4860F2EC7004FDFEE9
:10023C00FF22C860DB2481C85009C39860025006B5
:10024C0002036D9850CAF582E9294B4A7005AB82BE
:10025C0002035C75F0007C1A7880C3EF9BEE9AED7C
:10026C0099400DC3EF9BFFEE9AFEED99FDE842F02D
:10027C00DC23ACF0D0E0FFD0E0FED0E0FDAB822080
:10028C00E7101BEB60BAEC2CFCEF33FFEE33FEED0A
:10029C0033FD020348E803F830E705C0F075F000C1
:1002AC00EF2FFFEE33FEED33FD40B830E7C280AAEE
:1002BC0075F020800E75F010800575F0087D007EBD
:1002CC00007F003392D530D503120489EC334010F3
:1002DC00EF33FFEE33FEED33FDEC33FCD5F0ED22C6
:0E02EC00E5F0247EA2D513CC92E7CDCEFF2202
:1002FA00EDD2E7CD33EC3392D524814006E4FFFEFC
:10030A00FDFC22FCE4CFCECDCC24E0501174FF805A
:10031A00EDC3CC13CCCD13CDCE13CECF13CF0470F7
:07032A00F030D5DE0204896A
:10033100E9D2E7C933E833F892D5EDD2E7CD33EC12
:0703410033FC5002B2D5228B
:10034800EC30E7100FBF000C0EBE00080DBD000416
:100358000BEB6014A2D5EB13FCED92E7FD2274FFC2
:10036800FCFDFEFF22E480F8A2D574FF13FC7D801B
:03037800E480EF2F
:10077800020A4CE493A3F8E493A34003F68001F241
:1007880008DFF48029E493A3F85407240CC8C33382
:10079800C4540F4420C8834004F456800146F6DF51
:1007A800E4800B0102040810204080900AD7E47E00
:1007B800019360BCA3FF543F30E509541FFEE49346
:1007C800A360010ECF54C025E060A840B8E493A30D
:1007D800FAE493A3F8E493A3C8C582C8CAC583CA38
:1007E800F0A3C8C582C8CAC583CADFE9DEE780BEF0
:010B000000F4
:10037B00C2D530F707B2D563F0FF05F030E70CB20A
:10038B00D5F4048463F0FF05F080018430D502F4CA
:02039B0004223A
:10039D00BB010CE58229F582E5833AF583E0225015
:1003AD0006E92582F8E622BBFE06E92582F8E2225F
:0D03BD00E58229F582E5833AF583E4932279
:1003CA00BB010689828A83F0225002F722BBFE0112
:0203DA00F3220C
:1003DC00F8BB010DE58229F582E5833AF583E8F057
:1003EC00225006E92582C8F622BBFE05E92582C803
:0203FC00F222EB
:1003FE00BC000BBE0029EF8DF084FFADF022E4CCE3
:10040E00F875F008EF2FFFEE33FEEC33FCEE9DECAB
:10041E00984005FCEE9DFE0FD5F0E9E4CEFD22EDF1
:10042E00F8F5F0EE8420D21CFEADF075F008EF2F3B
:10043E00FFED33FD4007985006D5F0F222C398FD2C
:05044E000FD5F0EA22C9
:10045300C2D5EC30E709B2D5E4C39DFDE49CFCEEC4
:1004630030E715B2D5E4C39FFFE49EFE1203FEC33B
:10047300E49DFDE49CFC80031203FE30D507C3E436
:060483009FFFE49EFE2233
:0E048900C3E49FFFE49EFEE49DFDE49CFC2284
:00000001FF
