:0304810001260051
:10035800E4FFE5B0540FFEE52614601114602C2468
:1003680002702EEE640F60297526018024EE640F5A
:10037800601CBE07027F04BE0B027F05BE0D027F14
:1003880006BE0E027F077526028006BE0F03E4F53F
:01039800263E
:010399002241
:10001E001203D912046F12045A300207C2021203DD
:10002E00588F253000F3C200C28CAF8CEFFEAD8A24
:10003E007C00E42DF522EC3EF521D28CE4F58CF516
:10004E008AC3E522940AE5219400501F750D0075B0
:10005E000E10750F007510107511007512107513B6
:10006E0000751410AE21AF22020167C3E52294641D
:10007E00E52194005031AE21AF227C007D0A12039F
:10008E00037C007D0A1203038C138D14750D00750D
:10009E000E10750F00751010751100751210AE212F
:1000AE00AF227C00020167C3E52294E8E5219403A8
:1000BE005044AE21AF227C007D641203037C007D90
:1000CE000A120303AA04AB05AE21AF227C007D0AFF
:1000DE001203037C007D0A1203038C138D148A1104
:1000EE008B12750D00750E10750F00751010AE2168
:1000FE00AF227C008063C3E5229410E52194275043
:10010E0071AE21AF227C037DE81203037C007D0AD1
:10011E00120303AA04AB05AE21AF227C007D64124C
:10012E0003037C007D0A1203038C838D82AE21AF04
:10013E00227C007D0A1203037C007D0A1203038CCD
:10014E00138D148583118582128A0F8B10750D0005
:10015E00750E10AE21AF227C007D0A1203038C15A2
:10016E008D167B107A007D107C007F10120003022A
:10017E000027AE21AF227C277D10120303C007C0DB
:10018E0006AE21AF227C037DE81203037C007D0ABC
:10019E00120303AA04AB05AE21AF227C007D6412CC
:1001AE0003037C007D0A1203038C838D82AE21AF84
:1001BE00227C007D0A1203037C007D0A1203038C4D
:1001CE00138D148583118582128A0F8B10D00DD05A
:1001DE000EAE21AF227C007D0A1203038C158D1604
:1001EE007B107A007D107C007F1012000302002726
:03001B0002028A54
:10028A00C0E0C0F0C083C082C0D075D000C000C03A
:10029A0001C002C003C004C005C006C00712039A09
:1002AA000524E52470020523AE23FF7C007D141289
:1002BA000303ED4C7002D202AE23AF247C007D32E0
:1002CA00120303ED4C7002D201AE23AF247C037DEE
:1002DA00E8120303ED4C7002D2008C238D24D00760
:1002EA00D006D005D004D003D002D001D000D0D09F
:0902FA00D082D083D0F0D0E032B4
:1003D9007580FFE5A0541F4480F5A053A01F7580C8
:1003E900AFE5A0541F44A0F5A053A01F7580FFE5F9
:1003F900A0541F44C0F5A053A01F7580FFE5A05469
:090409001F44E0F5A053A01F22DE
:10044500EF1FAC0670011E4C600A7D0C7CA9DCFE1A
:04045500DDFC80EC5E
:010459002280
:10046F00538E7F758905E4F58AF58CC28DD28CC2C7
:02047F00A922B0
:10045A00538EBF53890F758B18758DFCC28FD28E40
:05046A00D2ABD2AF226D
:100412003F065B4F666D7D077F6F777C395E797132
:100422000040761E7038375C733E783D6750376EF9
:10043200BF86DBCFE6EDFD87FFEF46010204081021
:03044200204080D7
:0A04840008181010101010101010CE
:10039A007580FFE5A0541F44E0F5A053A01FE517A0
:1003AA0090043D93F580E5A0541F44C0F5A053A0E6
:1003BA001F74182517F8E690041293F4F580E5A047
:0E03CA00541F44E0F5A053A01F05175317075A
:0103D8002202
:100003008F188D198B1A850E1B85101C85121D8563
:06001300141E85161F22D9
:030000000201FEFC
:0C01FE00787FE4F6D8FD758126020245EA
:10030300BC000BBE0029EF8DF084FFADF022E4CCDE
:10031300F875F008EF2FFFEE33FEEC33FCEE9DECA7
:10032300984005FCEE9DFE0FD5F0E9E4CEFD22EDED
:10033300F8F5F0EE8420D21CFEADF075F008EF2F37
:10034300FFED33FD4007985006D5F0F222C398FD28
:050353000FD5F0EA22C5
:10020A0002001EE493A3F8E493A34003F68001F2EC
:10021A0008DFF48029E493A3F85407240CC8C333F5
:10022A00C4540F4420C8834004F456800146F6DFC4
:10023A00E4800B0102040810204080900481E47ECF
:10024A00019360BCA3FF543F30E509541FFEE493B9
:10025A00A360010ECF54C025E060A840B8E493A380
:10026A00FAE493A3F8E493A3C8C582C8CAC583CAAB
:10027A00F0A3C8C582C8CAC583CADFE9DEE780BE63
:01048E00006D
:00000001FF
