:0303DD00011C0000
:1001A600E4FFE5B0540FFEE51C14601114602C2426
:1001B60002702EEE640F6029751C018024EE640F18
:1001C600601CBE07027F04BE0B027F05BE0D027FC8
:1001D60006BE0E027F07751C028006BE0F03E4F5FD
:0101E6001CFC
:0101E70022F5
:10029300E4FF1202C58F1B1202271203B9300207B3
:1002A300C2021201A68F1A300009C200E4FF120233
:1002B300C58F1BE51A60E6FDE4FF120320E4F51A7F
:0202C30080DBDE
:03000B0002000EE2
:10000E00C0E0C0F0C083C082C0D075D000C000C0B8
:10001E0001C002C003C004C005C006C0071201E83B
:10002E000519E51970020518AE18FF7C007D0A123D
:10003E000151ED4C7024F50D750E10F50F75101065
:10004E00F511751210F513751410F5157516107B44
:10005E0010FA7D10FCAF1B12038EAE18AF197C0088
:10006E007D14120151ED4C7002D202AE18AF197C04
:10007E00007D32120151ED4C7002D201AE18AF1953
:10008E007C007D64120151ED4C7002D200AE18AFAF
:10009E00197C037DE81201518C188D19D007D006FA
:1000AE00D005D004D003D002D001D000D0D0D08261
:0700BE00D083D0F0D0E03246
:100227007580FFE5A0541F4480F5A053A01F75807B
:10023700AFE5A0541F44A0F5A053A01F7580FFE5AC
:10024700A0541F44C0F5A053A01F7580FFE5A0541C
:090257001F44E0F5A053A01F2292
:1003A400EF1FAC0670011E4C600A7D0C7CA9DCFEBC
:0403B400DDFC80EC00
:0103B8002222
:1003B900538E7F5389F0758A18758CFCC28DD28C47
:0503C900D2A9D2AF2211
:100260003F065B4F666D7D077F6F777C395E7971E6
:100270000040761E7038375C733E783D6750376EAD
:10028000BF86DBCFE6EDFD87FFEF460102040810D5
:030290002040808B
:0A03E00008220F101010101010106A
:1001E8007580FFE5A0541F44E0F5A053A01FE5214A
:1001F80090028B93F580E5A0541F44C0F5A053A04E
:100208001F74222521F8E690026093F4F580E5A09A
:0E021800541F44E0F5A053A01F0521532107F9
:0102260022B5
:10038E008F228D238B24850E258510268512278599
:06039E0014288516292237
:0403EB00D2A07F0518
:0803EF0000AE071FEE70F922B9
:0F03CE00D2A11203EBC2A17F051203EFC2A0223E
:0C03F700C2A11203EBD2A17F050203EFAC
:10037700C2A0A20392A17F051203EF1203EBC2A052
:07038700D2A17F050203EF84
:08035E001203CE7FA01202F48D
:100366001203EBA2A19203C2A07F051203EFA20320
:010376002264
:0202F400AD0754
:1002F600E4FCC2A07F051203EFED30E704D2A18033
:1003060002C2A17F051203EFD2A0ED25E0FD7F0515
:090316001203EF0CBC08DBC2A0CD
:01031F0022BB
:10034100E4FC1203EBED25E0FD30A103430501C2FE
:0C035100A07F051203EF0CBC08E8AF050C
:01035D00227D
:10032000AB05AA0712035EAF021202F4120366AF16
:10033000031202F41203661203F77F057E00020324
:01034000A418
:0202C500AB0785
:1002C70012035EAF031202F41203661203CE7FA17C
:1002D7001202F41203661203418F17D20312037737
:0C02E7001203F77F057E001203A4AF177E
:0102F30022E8
:030000000200C536
:0C00C500787FE4F6D8FD75812902010C5B
:10015100BC000BBE0029EF8DF084FFADF022E4CC92
:10016100F875F008EF2FFFEE33FEEC33FCEE9DEC5B
:10017100984005FCEE9DFE0FD5F0E9E4CEFD22EDA1
:10018100F8F5F0EE8420D21CFEADF075F008EF2FEB
:10019100FFED33FD4007985006D5F0F222C398FDDC
:0501A1000FD5F0EA2279
:1000D100020293E493A3F8E493A34003F68001F2B0
:1000E10008DFF48029E493A3F85407240CC8C33330
:1000F100C4540F4420C8834004F456800146F6DFFF
:10010100E4800B01020408102040809003DDE47EAE
:10011100019360BCA3FF543F30E509541FFEE493F3
:10012100A360010ECF54C025E060A840B8E493A3BA
:10013100FAE493A3F8E493A3C8C582C8CAC583CAE5
:10014100F0A3C8C582C8CAC583CADFE9DEE780BE9D
:0103EA000012
:00000001FF
