:0304AA00012C0022
:10031000E4FFE5B0540FFEE52C14601114602C24AA
:1003200002702EEE640F6029752C018024EE640F9C
:10033000601CBE07027F04BE0B027F05BE0D027F5C
:1003400006BE0E027F07752C028006BE0F03E4F581
:010350002C80
:010351002289
:10000E00120391750D00750E04750F007510237592
:10001E0011007512597513007514507B127A007DFC
:10002E00017C007F231202CD12045C300207C20253
:10003E001203108F283000F3C2007F8D1204988FA8
:10004E00227F8B1204988F277F891204988F297F25
:10005E00871204988F2A7F851204988F247F83122B
:10006E0004988F237F811204988F21E52BC394026D
:10007E005051E52275F00A84FB7A00E52275F00AEC
:10008E0084E5F02420F50EE433F50DE52975F00A2C
:10009E0084E5F02420F510E433F50FE52A75F00A17
:1000AE0084751100F512E52A75F00A84E5F0242016
:1000BE00F514E433F513751500751610E4FDFC7F89
:1000CE00028036E52BC394045035750D00750E1065
:1000DE00750F0075101075110075121075130075DF
:1000EE001411E52775F00A84AFF07515008F167B95
:1000FE00107A007D107C007F10120431020039E569
:10010E002475F00A84FFE52475F00A84E5F0FD7C81
:10011E0000E52375F00A84750D00F50EE52375F0E4
:10012E000A84E5F0750F00F510751100751211E5D2
:10013E002175F00A84751300F514E52175F00A8413
:10014E00E5F0751500F5167B117A001204310200E8
:01015E003967
:03000B0002015F90
:10015F00C0E0C0F0C083C082C0D075D000C000C066
:10016F0001C002C003C004C005C006C0071203527D
:10017F000526E52670020525AE25FF7C007D1412AD
:10018F000278ED4C7002D202AE25AF267C007D3294
:10019F00120278ED4C7002D201AE25AF267C007DA5
:1001AF0064120278ED4C7002D200AE25AF267C03AC
:1001BF007DE8120278ED4C7005052B532B078C252B
:1001CF008D26D007D006D005D004D003D002D001A1
:0D01DF00D000D0D0D082D083D0F0D0E0325C
:100391007580FFE5A0541F4480F5A053A01F758010
:1003A100AFE5A0541F44A0F5A053A01F7580FFE541
:1003B100A0541F44C0F5A053A01F7580FFE5A054B1
:0903C1001F44E0F5A053A01F2227
:10044700EF1FAC0670011E4C600A7D0C7CA9DCFE18
:04045700DDFC80EC5C
:01045B00227E
:10045C00538E7F5389F0758A18758CFCC28DD28CA3
:05046C00D2A9D2AF226D
:1003FE003F065B4F666D7D077F6F777C395E797147
:10040E000040761E7038375C733E783D6750376E0D
:10041E00BF86DBCFE6EDFD87FFEF46010204081035
:03042E00204080EB
:0A04AD0008181010101010101010A5
:100352007580FFE5A0541F44E0F5A053A01FE517E8
:1003620090042993F580E5A0541F44C0F5A053A042
:100372001F74182517F8E69003FE93F4F580E5A0A4
:0E038200541F44E0F5A053A01F0517531707A2
:01039000224A
:100431008F188D198B1A850E1B85101C85121D8531
:06044100141E85161F22A7
:10048500E4FEC297EF1392A3EFC313FFD2970EBEFC
:0204950008F06D
:010497002242
:10047100C29300C29700D29300120485AF05120403
:0404810085C293227B
:1003CA00E4FDC29300C29700D29300120485E4FFB1
:1003DA00C297EDC313FD30A303430580D2970FBF25
:1003EA0008EEC29300C29700D29700C2A300D2A31C
:0303FA0000AF054C
:0103FD0022DD
:1002CD00A9078D82E4FD7F8E120471AD147F80121B
:1002DD000471AD127F82120471AD107F841204710E
:1002ED00AD037F86120471AD827F88120471AD0E4D
:1002FD007F8A120471AD017F8C1204717D807F8E17
:03030D0002047176
:100498001203CAEFC4540F75F00AA4FEEF540F2ECE
:0104A800FF54
:0104A9002230
:030000000201EC0E
:0C01EC00787FE4F6D8FD75812C02023308
:10027800BC000BBE0029EF8DF084FFADF022E4CC6A
:10028800F875F008EF2FFFEE33FEEC33FCEE9DEC33
:10029800984005FCEE9DFE0FD5F0E9E4CEFD22ED79
:1002A800F8F5F0EE8420D21CFEADF075F008EF2FC3
:1002B800FFED33FD4007985006D5F0F222C398FDB4
:0502C8000FD5F0EA2251
:1001F80002000EE493A3F8E493A34003F68001F20F
:1002080008DFF48029E493A3F85407240CC8C33307
:10021800C4540F4420C8834004F456800146F6DFD6
:10022800E4800B01020408102040809004AAE47EB8
:10023800019360BCA3FF543F30E509541FFEE493CB
:10024800A360010ECF54C025E060A840B8E493A392
:10025800FAE493A3F8E493A3C8C582C8CAC583CABD
:10026800F0A3C8C582C8CAC583CADFE9DEE780BE75
:0104B7000044
:00000001FF
