:0300000002038D6B
:0C038D00787FE4F6D8FD75813E0203D4B1
:10047500E4F593F594F591F592F595F596F5B1F5C5
:10048500B2F5B3F5B4F5C9F5CAF5CBF5CCF5E1F59B
:10049500E27580FF7F04120626E4FF1206267580AA
:1004A500AF7F05120626E4FF120626E4F5807F06D7
:1004B500120626E4FF1206267580FF7F0712062620
:0B04C500E4FF120626120773D2AF22DC
:10062600EF24FC601114601714601D146023240766
:10063600702753A01F22E5A0541F4480F5A022E591
:10064600A0541F44A0F5A022E5A0541F44C0F5A065
:0A06560022E5A0541F44E0F5A022A5
:10077300538E7F5389F0758A18758CFCC28DD28C89
:03078300D2A922D6
:100697003F065B4F666D7D077F6F777C395E7971AB
:1006A7000040761E7038375C733E783D6750376E72
:0B06B700BF86DBCFE6EDFD87FFEF46BE
:1007240008270000000000000000082F000000005F
:0A073400000000000122FF0126FF73
:1004D00074272523F8E66011AF23A807740108806C
:1004E00002C333D8FC42218010AF23A8077401084F
:1004F0008002C333D8FCF45221E52265216012E565
:1005000021F4F5807F04120626E4FF1206268521D9
:0805100022E523045407F52342
:0105180022C0
:100562007580FF7F07120626E4FF120626AF24A835
:10057200077401088002C333D8FCF5807F06120697
:1005820026E4FF120626742F2524F8E69006979398
:10059200F4F5807F07120626E4FF120626E52404FE
:0405A2005407F524E1
:0105A6002232
:1006600030000FA8077401088002C333D8FC42256C
:10067000800EA8077401088002C333D8FCF4522509
:10068000E525652660108525807F05120626E4FF96
:0606900012062685252656
:010696002241
:1002D300753DFF753E6375B00FC2C2C2C4A2C29220
:1002E300B6A2C492B7E5B0540FF53DE53714601ECE
:1002F30014606514700302037A2403600302038A03
:10030300E53D640F700302038A7537018079E53D8B
:10031300B40F02803EE53D44F0F5B0D2C2D2C4A290
:10032300C292B6A2C492B785B03D753702E53D24AB
:1003330085601124C4601224FC6013244470147576
:1003430039048043753905803E753908803975391C
:10035300098034E4F537802FE53D640F60110538DB
:10036300E538D394644020E4F5387537038018E406
:10037300F53885393E800CE53DB40F0BE53924147F
:09038300F53EE4F539F537AF3E13
:01038C00224E
:1005A7001204757513FF1205EBE4FF1200007F01BB
:1005B7001200007F02120000E518B40A06E4F518DD
:1005C700120707E51AB4640FE4F51AE51B70047FF8
:1005D7000180027F008F1BE512B414DCE4F51212D0
:0405E70001E880D4D3
:03000B00020419D3
:10041900C0E0C0F0C083C082C0D075D000C000C0A9
:1004290001C002C003C004C005C006C007120562AE
:100439001204D01201E8E518C3940A50020518E520
:100449001AC394645002051AE512C39414500205A4
:1004590012D007D006D005D004D003D002D001D0E5
:0C04690000D0D0D082D083D0F0D0E032A0
:100707001202D38F19E51924FC7011E5102401FF9B
:0D071700E433FE7C007D031201858D10226D
:1001E800E5101460561470030202C324026003026F
:1001F80002D2753111753411E50A75F00A8475F06B
:100208000A8485F02FE50A75F00A8485F030E5093F
:1002180075F00A8475F00A8485F032E50975F00AEC
:100228008485F033E50875F00A8475F00A8485F052
:1002380035E50875F00A8485F03622E51364026016
:1002480009751302752F18753319AE14AF157C0094
:100258007D641201857C007D0A1201858D30AE1403
:10026800AF157C007D0A1201857C007D0A1201858C
:10027800ED2420F531AE14AF157C007D0A120185FE
:100288008D32AE16AF177C007D641201857C007D2F
:100298000A1201858D34AE16AF177C007D0A120153
:1002A800857C007D0A120185ED2420F535AE16AF58
:1002B800177C007D0A1201858D3622E513640260E1
:0B02C80006751302752F2A851F3022D7
:060519008B3A8A3B893C8D
:10051F00ED603FE4FFED14FEEFC39E5035AB3AAAFA
:10052F003BA93C8F827583001201367025EFF5824F
:10053F00758300A3120136600C3001098F82758319
:10054F0000741180078F8275830074101201630F7E
:02055F0080C357
:010561002277
:04073F007F057E00B4
:10074300EF1FAA0670011E4A600BE4FDEDC3940C73
:0507530050EE0D80F7DF
:01075800227E
:0206E900A9075F
:1006EB00E4FBC294E913929412073FD294E9C3132B
:0C06FB00F90BBB08ED7F057E00020743F1
:10075900E4FBC294ECC313FCD294309403430480A9
:0907690012073F0BBB08EBAF04C3
:010772002264
:1006C200C202D2947F0C7E00120743C2947F507EF6
:1006D20000120743D2947F0A7E00120743A294922B
:0606E2000212073FA20214
:0106E80022EF
:1005EB001206C27FCC1206E97F441206E91206C23C
:1005FB007FCC1206E97FBE1206E97FC87E00120788
:10060B0043120759A907120759EFAD01FCEC120071
:0B061B00B3E4FBFA7980784102001183
:10000E0002012BEC5D046005E85904700302012126
:10001E001200EC580460F6EC4860F2EC7004FDFE41
:10002E00FF22C860DB2481C85009C39860025006C5
:10003E000201289850CAF582E9294B4A7005AB8215
:10004E0002011775F0007C1A7880C3EF9BEE9AEDD3
:10005E0099400DC3EF9BFFEE9AFEED99FDE842F03D
:10006E00DC23ACF0D0E0FFD0E0FED0E0FDAB822090
:10007E00E7101BEB60BAEC2CFCEF33FFEE33FEED1A
:10008E0033FD020103E803F830E705C0F075F00018
:10009E00EF2FFFEE33FEED33FD40B830E7C280AAFE
:1000AE0075F020800E75F010800575F0087D007ECD
:1000BE00007F003392D530D5031201DAEC334010B5
:1000CE00EF33FFEE33FEED33FDEC33FCD5F0ED22D6
:0E00DE00E5F0247EA2D513CC92E7CDCEFF2212
:1000EC00E9D2E7C933E833F892D5EDD2E7CD33EC5A
:0700FC0033FC5002B2D522D3
:10010300EC30E7100FBF000C0EBE00080DBD00045D
:100113000BEB6014A2D5EB13FCED92E7FD2274FF09
:10012300FCFDFEFF22E480F8A2D574FF13FC7D8062
:03013300E480EF76
:100399000205A7E493A3F8E493A34003F68001F2CE
:1003A90008DFF48029E493A3F85407240CC8C33365
:1003B900C4540F4420C8834004F456800146F6DF34
:1003C900E4800B0102040810204080900724E47E99
:1003D900019360BCA3FF543F30E509541FFEE49329
:1003E900A360010ECF54C025E060A840B8E493A3F0
:1003F900FAE493A3F8E493A3C8C582C8CAC583CA1B
:10040900F0A3C8C582C8CAC583CADFE9DEE780BED2
:01073E0000BA
:10013600BB010CE58229F582E5833AF583E022507E
:1001460006E92582F8E622BBFE06E92582F8E222C8
:0D015600E58229F582E5833AF583E49322E2
:10016300F8BB010DE58229F582E5833AF583E8F0D2
:10017300225006E92582C8F622BBFE05E92582C87E
:02018300F22266
:10018500BC000BBE0029EF8DF084FFADF022E4CC5E
:10019500F875F008EF2FFFEE33FEEC33FCEE9DEC27
:1001A500984005FCEE9DFE0FD5F0E9E4CEFD22ED6D
:1001B500F8F5F0EE8420D21CFEADF075F008EF2FB7
:1001C500FFED33FD4007985006D5F0F222C398FDA8
:0501D5000FD5F0EA2245
:0E01DA00C3E49FFFE49EFEE49DFDE49CFC2236
:00000001FF
