:0C032D00C0F9A4B0999282F88090BFFF44
:03033900010B00B5
:0B0321000000007F0B7EBEDEFEDFFC54
:01032C0022AE
:10030D00AD07AC06ED1DAE0470011C4E6005120369
:04031D002180F12228
:10027700EF24FB601414601B14602224037026E52E
:10028700A0541F4480F5A0801CE5A0541F44A0F58E
:10029700A08012E5A0541F44C0F5A08008E5A05433
:0B02A7001F44E0F5A08D8053A01F2233
:10023400AB05AA04AE077DFF7C007F07120277AFEF
:100244000674017E00A807088005C333CE33CED8D8
:10025400F9FDAC067F06120277742D2BF582740328
:100264003AF583E493FD7C000F1202777F017E0050
:0302740002030D75
:10000300E4F50AC2C4D2C2D2B5D2B4E5B0540F7E6D
:1000130000D2C4C2C2D2B5D2B4C4F8540FC868FF68
:10002300EEC454F048FEE5B0540FFDEF4DD2C4D2F8
:10003300C2C2B5D2B4C4F8540FC868FFEEC454F0BA
:1000430048FEE5B0540FFDEF4DD2C4D2C2D2B5C2C3
:10005300B4C4F8540FC868FFEEC454F048FEE5B0CA
:10006300540FFDEF4DF4FFEEF4FEEF8EF01202E0BD
:100073000102000100FD000200F8000400F3000883
:1000830000EE001000E9002000E4004000DF0080E3
:1000930000DA010000D5020000D0040000CB080004
:1000A30000C6100000C1200000BC400000B7800063
:1000B30000000107750A04804E750A058049750A18
:1000C300068044750A07803F750A08803A750A0955
:1000D3008035750A0A8030750A0B802B750A0C80EF
:1000E30026750A0D8021750A0E801C750A0F80176C
:1000F300750A108012750A11800D750A1280087531
:090103000A138003E4F50AAF0AB7
:01010C0022D0
:10010D00120003E5096FFE5FFDEFF45EF5088F0940
:10011D00AF05EF24FCB4100040030201A790013895
:10012D0075F003A4C58325F0C58373020168020130
:10013D006C02017002017402017802017C020180DF
:10014D0002018402018802018C02019002019402D5
:10015D00019802019C0201A00201A4750B042275F5
:10016D000B0522750B0622750B0722750B082275E0
:10017D000B0922750B0A22750B0B22750B0C2275C0
:10018D000B0D22750B0E22750B0F22750B102275A0
:0A019D000B1122750B1222750B13D3
:0101A7002235
:1002B200E50BC3940A4009E50B75F00A84FD800240
:1002C2007D0B7C007F06120234E50B75F00A84E593
:0E02D200F0FD7C007F0712023412010D80D275
:030000000201A852
:0C01A800787FE4F6D8FD75810B0201EFB2
:1002E000D083D082F8E4937012740193700DA3A3AD
:1002F00093F8740193F5828883E473740293B5F0E4
:0D030000067403936860E9A3A3A3A380D84B
:1001B4000202B2E493A3F8E493A34003F68001F2AD
:1001C40008DFF48029E493A3F85407240CC8C3334C
:1001D400C4540F4420C8834004F456800146F6DF1B
:1001E400E4800B0102040810204080900339E47E6F
:1001F400019360BCA3FF543F30E509541FFEE49310
:10020400A360010ECF54C025E060A840B8E493A3D6
:10021400FAE493A3F8E493A3C8C582C8CAC583CA01
:10022400F0A3C8C582C8CAC583CADFE9DEE780BEB9
:01033C0000C0
:00000001FF
