:1001A9003F065B4F666D7D077F6F777C395E79719E
:1001B9000040761E7038375C733E783D6750376E65
:1001C900BF86DBCFE6EDFD87FFEF4601020408108D
:0301D90020408043
:10020700081E1010101010101010011C00011D0006
:1001F200EF1FAC0670011E4C600A7D0C7CA9DCFE70
:04020200DDFC80ECB3
:0102060022D5
:10016A007580FFE5A0541F44E0F5A053A01FE51CCD
:10017A009001D493F580E5A0541F44C0F5A053A084
:10018A001F741E251CF8E69001A993F4F580E5A0DA
:0E019A00541F44E0F5A053A01F051C531C0782
:0101A8002234
:1001DC008F1E8D1F8B208513218515228517238556
:0601EC001924851B2522E9
:10012800E4FFE5B0540FFEE51D14601114602C24A3
:1001380002702EEE640F6029751D018024EE640F95
:10014800601CBE07027F04BE0B027F05BE0D027F46
:1001580006BE0E027F07751D028006BE0F03E4F57A
:010168001D79
:010169002273
:10000300750A05750C017580FFE5A0541F4480F542
:10001300A053A01F7580AFE5A0541F44A0F5A053C3
:10002300A01F7580FFE5A0541F44C0F5A053A01F77
:100033007580FFE5A0541F44E0F5A053A01FC3E55E
:10004300099414E5089400400AE4F508F50912013F
:1000530028A907E96004F50BE4F97512007513107C
:100063007514007515107516007517107518007541
:100073001910751A00751B107B107A007D107C0017
:10008300AF0B1201DC12016A7F017E001201F2053F
:0900930009E50970A9050880A522
:0300000002009C5F
:0C009C00787FE4F6D8FD7581250200E3B2
:1000A800020003E493A3F8E493A34003F68001F26B
:1000B80008DFF48029E493A3F85407240CC8C33359
:1000C800C4540F4420C8834004F456800146F6DF28
:1000D800E4800B0102040810204080900207E47EAF
:1000E800019360BCA3FF543F30E509541FFEE4931D
:1000F800A360010ECF54C025E060A840B8E493A3E4
:10010800FAE493A3F8E493A3C8C582C8CAC583CA0E
:10011800F0A3C8C582C8CAC583CADFE9DEE780BEC6
:0102170000E6
:00000001FF
