:1000930053A01F8D80EF24FB601314601914601F9D
:1000A30024037023E5A0541F4480F5A022E5A05447
:1000B3001F44A0F5A022E5A0541F44C0F5A022E5EB
:0800C300A0541F44E0F5A02247
:0700F5007FC87E000200D469
:0900CB007F041200937FA07E86E1
:1000D400EF1FAC0670011E4C70F6EF1FAC067001EA
:0500E4001E4C70F62225
:100003001200F5E4FDFC7F05120093E4F508E4FD1E
:10001300FC1200CB7DFF7C001200CB0508E508D362
:10002300940240EAE4F50974FF7E00A809088005FC
:10003300C333CE33CED8F9FDAC067F041200937FD1
:10004300807E381200D40509E509D3940840D8E42A
:10005300F50A74FF7E00A80A088005C333CE33CEA9
:10006300D8F9F4FDEEF4FC7F041200937F807E3810
:100073001200D4050AE50AD3940840D67D507C00CB
:100083007F051200CDE4FDFC7F0512009302000EF4
:030000000200E912
:0C00E900787FE4F6D8FD75810A02000360
:00000001FF
