:0300000002011CDE
:0C011C00787FE4F6D8FD75814302016392
:1002AD00120003751302E4F512FB7A00790D1203A7
:1002BD009CE50C6464450B700AF5251204D5E4F534
:1002CD000BF50CE511645A45107008120455E4F550
:1002DD0010F511E51A640F451970D6F519F51A8048
:0102ED00D040
:030063000201A8EF
:1001A800C0E0C0F0C083C082C0D075D000C000C01D
:1001B80001C002C003C004C005C006C0071202681F
:1001C80012021FC3E50C9464E50B94005008050C5B
:1001D800E50C7002050BC3E511945AE51094005024
:1001E800080511E51170020510C3E51A940FE51909
:1001F80094005008051AE51A70020519D007D006B0
:10020800D005D004D003D002D001D000D0D0D08205
:07021800D083D0F0D0E032EA
:0904D5007B007A0079080202EEB6
:10045500E5127018752B09752C08752D07752E0674
:0D046500752F0575300675310775320822B8
:1003CE007F01120000EF75F0FF84FF7E007C017D3F
:1003DE00F41200B58E148F157F03120000EF75F026
:1003EE00FF84FF7E007C017DF41200B58E168F1700
:0103FE0022DC
:01005E00227F
:100472001200008F18E51824FC7011E5122401FF08
:0D048200E433FE7C007D031200C78D1222C2
:10000300E4F594F593F592F591F596F595F5B2F53A
:10001300B1F5B4F5B3F5CAF5C9F5CCF5CBF5E2F511
:10002300E17580FF7F0412032EE4FF12032E758017
:10003300AF7F0512032EE4FF12032EE4F5807F0643
:1000430012032EE4FF12032E7580FF7F0712032E87
:0B005300E4FF12032E1204B6D2AF220D
:10032E00EF24FC601114601714601D146023240761
:10033E00702753A01F22E5A0541F4480F5A022E58C
:10034E00A0541F44A0F5A022E5A0541F44C0F5A060
:0A035E0022E5A0541F44E0F5A022A0
:1004B600438E0475D72075D6D1438E1043AF0422E0
:1003FF003F065B4F666D7D077F6F777C395E797146
:10040F000040761E7038375C733E783D6750376E0C
:0C041F00BF86DBCFE6EDFD87FFEF4677E0
:10042B0008230000000000000000082B0000000063
:07043B00000000090121FF90
:10021F007423251FF8E66011AF1FA807740108802B
:10022F0002C333D8FC42208010AF1FA80774010807
:10023F008002C333D8FCF45220E52065216012E51B
:10024F0020F4F5807F0412032EE4FF12032E852085
:08025F0021E51F045407F51FFF
:010267002274
:100268007580FF7F0712032EE4FF12032EAF22A82A
:10027800077401088002C333D8FCF5807F06120397
:100288002EE4FF12032E742B2522F8E69003FF9329
:10029800F4F5807F0712032EE4FF12032EE52204F3
:0402A8005407F522E0
:0102AC00222F
:10044200073A80828486888A8C07338183858789EC
:020452008B8D90
:1004A300E4FEC297EF1392A3EFC313FFD2970EBEDE
:0204B30008F04F
:0104B5002224
:10048F00C29300C29700D293001204A3AF051204C7
:04049F00A3C293223F
:10036800E4FDC29300C29700D293001204A3E4FFF5
:10037800C297EDC313FD30A303430580D2970FBF87
:1003880008EEC29300C29700D29700C2A300D2A37E
:0303980000AF05AE
:01039B00223F
:0F04C600EFC4540F75F00AA4FEEF540F4EFF223F
:06039C008B418A428943F7
:1003A200E4FD7F8012048FE4FC743A2CF8E6FFAB84
:1003B20041AA42A9438C82758300120066FD120491
:0C03C2008F0CBC03E47D807F8002048F60
:0602EE008B418A428943A6
:1002F400E4FC74332CF8E6FF120368AB41AA42A96C
:10030400438C82758300EF1200938C8275830012F4
:100314000066FF1204C6AB41AA42A9438C827583CE
:0903240000EF1200930CBC03C9A8
:01032D0022AD
:100128000202ADE493A3F8E493A34003F68001F23E
:1001380008DFF48029E493A3F85407240CC8C333D8
:10014800C4540F4420C8834004F456800146F6DFA7
:10015800E4800B010204081020408090042BE47E08
:10016800019360BCA3FF543F30E509541FFEE4939C
:10017800A360010ECF54C025E060A840B8E493A363
:10018800FAE493A3F8E493A3C8C582C8CAC583CA8E
:10019800F0A3C8C582C8CAC583CADFE9DEE780BE46
:0104540000A7
:10006600BB010CE58229F582E5833AF583E022504F
:1000760006E92582F8E622BBFE06E92582F8E22299
:0D008600E58229F582E5833AF583E49322B3
:10009300F8BB010DE58229F582E5833AF583E8F0A3
:1000A300225006E92582C8F622BBFE05E92582C84F
:0200B300F22237
:1000B500EF8DF0A4A8F0CF8CF0A428CE8DF0A42E5F
:0200C500FE2219
:1000C700BC000BBE0029EF8DF084FFADF022E4CC1D
:1000D700F875F008EF2FFFEE33FEEC33FCEE9DECE6
:1000E700984005FCEE9DFE0FD5F0E9E4CEFD22ED2C
:1000F700F8F5F0EE8420D21CFEADF075F008EF2F76
:10010700FFED33FD4007985006D5F0F222C398FD66
:050117000FD5F0EA2203
:00000001FF
