:030000000200D427
:0C00D400787FE4F6D8FD75812E02011B38
:1002A600E4F594F593F592F591F596F595F5B2F595
:1002B600B1F5B4F5B3F5CAF5C9F5CCF5CBF5E2F56C
:1002C600E17580FF7F041203347580AF7F0512034A
:1002D60034E4F5807F061203347580FF7F0712032E
:0702E600341204A7D2AF227D
:10033400EF24FB601414601B14602224037026E570
:10034400A0541F4480F5A0801CE5A0541F44A0F5D0
:10035400A08012E5A0541F44C0F5A08008E5A05475
:090364001F44E0F5A053A01F2284
:1004A700538EBF53890F758B18758DFCC28FD28EF3
:0304B700D2AB22A3
:1003DA003F065B4F666D7D077F6F777C395E79716B
:1003EA000040761E7038375C733E783D6750376E32
:0B03FA00BF86DBCFE6EDFD87FFEF467E
:10047600080C000000000000000008140000000046
:0704860000000000010AFF65
:1002ED00740C2508F8E66011AF08A80774010880A2
:1002FD0002C333D8FC42098010AF08A80774010867
:10030D008002C333D8FCF45209E50A6509600DE596
:10031D0009F4F5807F0412033485090A0508E50800
:06032D00B40803E4F5082A
:0103330022A7
:10036D007580FF7F07120334AF0BA8077401088057
:10037D0002C333D8FCF5807F061203347414250BA9
:10038D00F8E69003DA93F4F5807F07120334050B3A
:08039D00E50BB40803E4F50BC5
:0103A5002235
:1000030081838587898B8D80828486888A8C5059E9
:05001300230904032590
:05048D00031C0000004B
:1004BA00E4FEC297EF1392A3EFC313FFD2970EBEC7
:0204CA0008F038
:0104CC00220D
:10049300C29300C29700D293001204BAAF051204AC
:0404A300BAC2932224
:1003A600E4FDC29300C29700D293001204BAE4FFA0
:1003B600C297EDC313FD30A303430580D2970FBF49
:1003C60008EEC29300C29700D29700C2A300D2A340
:0303D60000AF0570
:0103D9002201
:0F04CD00EFC4540F75F00AA4FEEF540F2EFF2258
:10043000E4FD7F8E120493E4FCEC90000A93FFEC41
:1004400090001193FD1204930CBC07ED7D807F8E0C
:0304500002049310
:10040500E4FCEC90000393FF1203A6741C2CF8A6E1
:10041500070CBC03EDE4FC741C2CF8E6FF1204CDBC
:0A042500741C2CF8A6070CBC03EDB4
:01042F0022AA
:10001E007525FF75266375B00FC2C2C2C4A2C29207
:10002E00B6A2C492B7E5B0540FF525E52014601BB7
:10003E0014605C14607C240360030200D1E5256427
:10004E000F70030200D17520018078E525B40F02F0
:10005E008038E52544F0F5B0D2C2D2C4A2C292B621
:10006E00A2C492B785B025752002E52524856010BF
:10007E0024FE601114600E2407700F752104804356
:10008E00752105803E7521068039E4F5208034E522
:10009E0025640F6011051FE51FD394464025E4F536
:1000AE001F752003801DE4F51FF520852126F521FF
:1000BE008011E525B40F0CE4F520E5212414F52676
:0500CE00E4F521AF265E
:0100D300220A
:03001800020405DA
:1004530012001E8F23E52324FC7017E52414600B80
:1004630014600C2402700B7524012275240222E40B
:03047300F524224B
:1001E700E52414601A047068E52375F00A8475F035
:1001F7000A8485F014E52375F00A8485F01522E555
:100207002264016009752201751611751911E51E21
:1002170075F00A8475F00A8485F014E51E75F00AF6
:100227008485F015E51D75F00A8475F00A8485F05C
:1002370017E51D75F00A8485F018E51C75F00A842A
:1002470075F00A8485F01AE51C75F00A8485F01BA1
:010257002284
:100258001202A6120430782CE664071846700912B8
:1002680002EDE4782BF608F6782EE664141846704A
:1002780009120453E4782DF608F6782AE664C818BB
:100288004670071201E7E4F608F67828E664641871
:0E0298004670C3120018E47827F608F680B806
:03001B000201607F
:10016000C0E0C0F0C083C082C0D075D000C000C065
:1001700001C002C003C004C005C006C00712036D61
:10018000C3782CE6940718E6940050070806E61892
:10019000700106C3782EE6941418E6940050070800
:1001A00006E618700106C3782AE694C818E694009B
:1001B00050070806E618700106C37828E69464180C
:1001C000E6940050070806E618700106D007D0062E
:1001D000D005D004D003D002D001D000D0D0D0823E
:0701E000D083D0F0D0E03223
:1000E000020258E493A3F8E493A34003F68001F2DC
:1000F00008DFF48029E493A3F85407240CC8C33321
:10010000C4540F4420C8834004F456800146F6DFEF
:10011000E4800B0102040810204080900476E47E05
:10012000019360BCA3FF543F30E509541FFEE493E4
:10013000A360010ECF54C025E060A840B8E493A3AB
:10014000FAE493A3F8E493A3C8C582C8CAC583CAD6
:10015000F0A3C8C582C8CAC583CADFE9DEE780BE8E
:010492000069
:00000001FF
