:0300000002067085
:0C067000787FE4F6D8FD75813D0206B7E6
:1008B300E4F593F594F591F592F595F596F5B1F583
:1008C300B2F5B3F5B4F5C9F5CAF5CBF5CCF5E1F559
:1008D300E27580FF7F04120A72E4FF120A727580C8
:1008E300AF7F05120A72E4FF120A72E4F5807F06F5
:1008F300120A72E4FF120A727580FF7F07120A72EE
:0B090300E4FF120A72120BA2D2AF2216
:100A7200EF24FC601114601714601D146023240716
:100A8200702753A01F22E5A0541F4480F5A022E541
:100A9200A0541F44A0F5A022E5A0541F44C0F5A015
:0A0AA20022E5A0541F44E0F5A02255
:100BA200538E7F5389F0758A18758CFCC28DD28C56
:030BB200D2A922A3
:100AE3003F065B4F666D7D077F6F777C395E79715B
:100AF3000040761E7038375C733E783D6750376E22
:0B0B0300BF86DBCFE6EDFD87FFEF466D
:100B5300080E00000000000000000816000000005E
:0A0B6300000000000109FF010DFF72
:10096000740E250AF8E66011AF0AA8077401088022
:1009700002C333D8FC42088010AF0AA807740108EC
:100980008002C333D8FCF45208E50965086012E51B
:1009900008F4F5807F04120A72E4FF120A728508D7
:0809A00009E50A045407F50AF9
:0109A800222C
:1009F2007580FF7F07120A72E4FF120A72AF0BA81A
:100A0200077401088002C333D8FCF5807F06120AFE
:100A120072E4FF120A727416250BF8E6900AE39349
:100A2200F4F5807F07120A72E4FF120A72E50B04E2
:040A32005407F50B65
:010A3600229D
:100AAC0030000FA8077401088002C333D8FC420C35
:100ABC00800EA8077401088002C333D8FCF4520CD2
:100ACC00E50C650D6010850C807F05120A72E4FF41
:060ADC00120A72850C0DE8
:010AE20022F1
:1005B6007537FF75386375B00FC2C2C2C4A2C29246
:1005C600B6A2C492B7E5B0540FF537E53B14601EEA
:1005D60014606514700302065D2403600302066D51
:1005E600E537640F700302066D753B018079E537C8
:1005F600B40F02803EE53744F0F5B0D2C2D2C4A2B1
:10060600C292B6A2C492B785B037753B02E53724CD
:1006160085601124C4601224FC6013244470147590
:100626003D048043753D05803E753D088039753D26
:10063600098034E4F53B802FE537640F6011053CF3
:10064600E53CD394644020E4F53C753B038018E414
:10065600F53C853D38800CE537B40F0BE53D241499
:09066600F538E4F53DF53BAF3831
:01066F002268
:100855001208B37529FFE4F52AF52B75321A120A29
:1008650037E4FF1206FC7F011206FC7F021206FC2C
:10087500E52EB40A06E4F52E120774E530B4640FCC
:10088500E4F530E53170047F0180027F008F31E5AA
:1008950028B41406E4F528120465E52DB4E8D1E57D
:0E08A5002CB403CCE4F52CF52D12090E80C204
:03000B000207E900
:1007E900C0E0C0F0C083C082C0D075D000C000C0D6
:1007F90001C002C003C004C005C006C0071209F247
:10080900120960E52EC3940A5002052EE530C394FF
:100819006450020530E528C3941450020528C3E545
:100829002D94E8E52C94035008052DE52D7002055B
:100839002CD007D006D005D004D003D002D001D0E7
:0C08490000D0D0D082D083D0F0D0E032BC
:100774001205B68F2FE52F24FB602024FD602D1475
:1007840060472405705EE5262401FFE433FE7C0007
:100794007D031203CC8D26E4FF800EE5270454016B
:1007A400F5277F011206FC7F020206FCE526B40150
:1007B40009E521649D6003152122E5266402702465
:1007C400E532649D601E153222E526B40109E52157
:1007D40064636003052122E526B40208E5326463FC
:0507E400600205322255
:10046500E52614605C14700302053E240260030255
:1004750005B5E5296012E4F52975160C7517107593
:100485001810751910751A10AE2AAF2B7C007D64F3
:100495001204217C007D0A1204218D1BAE2AAF2B8C
:1004A5007C007D0A1204217C007D0A120421ED24C2
:1004B50020F51CAE2AAF2B7C007D0A1204218D1D70
:1004C50022E5296401601275290175160E7517104C
:1004D500751810751910751A10C3E521648094807C
:1004E500500BE521F404F537752501800685213784
:1004F500E4F525E53775F0648475F00A8485F02206
:10050500E53775F00A8475F00A8485F023E53775BB
:10051500F00A8485F0247B007A007922C3E5216402
:1005250080948050028001C392017D031209A98540
:10053500221B85231C85241D22E529640260127572
:100545002902751612751710751810751910751A78
:1005550010C3E53264809480500BE532F404F5371E
:100565007536018006853237E4F536E53775F06472
:100575008475F00A8485F033E53775F00A8475F0E3
:100585000A8485F034E53775F00A8485F0357B00FB
:100595007A007933C3E5326480948050028001C3C8
:1005A50092017D031209A985331B85341C85351DF0
:0105B5002223
:10090E00120A378F3A8E398D388C37AB3AAA39A9FD
:10091E0038A837C000C001C002C003AC21EC1202DF
:10092E00B6D003D002D001D0001200158F3A8E3906
:10093E008D388C37E4FFFE7D207C41AB3AAA39A975
:10094E0038A8371201061202EA8E2A8F2B7F020276
:02095E0006FC95
:0609A9008B388A39893AFF
:1009AF00ED603FE4FFED14FEEFC39E5035AB38AA68
:1009BF0039A93A8F8275830012036B7025EFF58288
:1009CF00758300A312036B600C3001098F8275834E
:1009DF0000741180078F8275830074101203980FB3
:0209EF0080C3C3
:0109F10022E3
:1006FC00EF1460161460242402706CE4F50EF50FF0
:10070C00F510740E2526F8760122E5277006751172
:10071C0001F51222E4F51175120122E527701FAFC5
:10072C0032EF3395E0FE7C007D0A1203BAD3E52B41
:10073C009FEE6480F8E52A64809840288022E527A3
:10074C00B40124AF32EF3395E0FE7C007D0A120336
:10075C00BAC3E52B9FEE6480F8E52A6480985004B8
:08076C0075150122E4F51522C8
:040B6E007F057E0081
:100B7200EF1FAA0670011E4A600BE4FDEDC3940C40
:050B820050EE0D80F7AC
:010B8700224B
:020B3500A9070E
:100B3700E4FBC294E9139294120B6ED294E9C313A7
:0C0B4700F90BBB08ED7F057E00020B726D
:100B8800E4FBC294ECC313FCD29430940343048076
:090B9800120B6E0BBB08EBAF045D
:010BA1002231
:100B0E00C201D2947F0C7E00120B72C2947F507E73
:100B1E0000120B72D2947F0A7E00120B72A2949274
:060B2E0001120B6EA20192
:010B3400229E
:100A3700120B0E7FCC120B357F44120B35120B0EA7
:100A47007FCC120B357FBE120B357FC87E00120B91
:100A570072120B88A907120B88EFAD01FCEC12028A
:0B0A6700B1E4FBFA7980784102020F35
:10000E00020356E86480F8E933E83360110460F0C7
:10001E00ED33EC337009E8FCE9FDEAFEEBFF220458
:10002E0060DED3EB9FEA9EE99DE8C2E78CF0C2F753
:10003E0095F0400CE8CCF8E9CDF9EACEFAEBCFFB1F
:10004E0012032185D0F05804700320D5B3E8047054
:10005E00075002B2D502036092D5EC0460F7E4CCEF
:10006E00C0E0C398F8603B94186008400DD0E0FBE8
:10007E00020338E4FBFAC9FC8028E830E406E4C940
:10008E00FBE4CAFCE830E305E4C9CACBFCE854073C
:10009E006010F8C3E913F9EA13FAEB13FBEC13FC47
:1000AE00D8F130F52FC3E49CFCEF9BFFEE9AFEEDEA
:1000BE0099FDD0E0FBEF4E4D4C701222DB03020394
:1000CE005DEC2CFCEF33FFEE33FEED33FDED30E750
:1000DE00EB020338EF2BFFEE3AFEED39FDD0E0FBDD
:1000EE0050130BBB0003020360ED13FDEE13FEEF86
:0800FE0013FFEC13FC020338B0
:10010600EC4D6011E8497017ED33EC3304600DE4F3
:10011600FCFFFEFD22E933E8330470F802035612B1
:10012600032158046009E4CC2481500628500902B2
:10013600036028400302035DC0E0EB4A7044B980C7
:1001460006D0E0FB02034CEF4E701CBD8008EBFFAF
:10015600EAFEE9FD80EBE98DF0A4FEE5F00201EF91
:10016600E9CDF9EAFEEBFFEF89F0A4FCE5F0CE89D4
:10017600F0A42EFFE435F0CD89F0A42DFEE435F091
:100186008067EF4E7005BD80D780C3EF8BF0A4ACBF
:10019600F0EE8BF0A42CFCE435F0F8EF8AF0A42CFA
:1001A600E5F038FCE433CB8DF0A42CFCE5F03BF80D
:1001B600EE8AF0A42CFCE5F038F8E433CF89F0A4FD
:1001C6002CFCE5F038CF3400CE89F0A42FFFE5F003
:1001D6003EFEE433C98DF0A42EFEE5F039CD8AF05B
:1001E600A42FFFE5F03EFEE43DFD33D0E0FB5007D3
:1001F6000BBB000F020360EC2CFCEF33FFEE33FE6B
:06020600ED33FD02033898
:10020C00020360EC5D046005E859047003020356B8
:10021C00120321580460F6EC4860F2EC7004FDFE09
:10022C00FF22C860DB2481C85009C39860025006C5
:10023C0002035D9850CAF582E9294B4A7005AB82DE
:10024C0002034C75F0007C1A7880C3EF9BEE9AED9C
:10025C0099400DC3EF9BFFEE9AFEED99FDE842F03D
:10026C00DC23ACF0D0E0FFD0E0FED0E0FDAB822090
:10027C00E7101BEB60BAEC2CFCEF33FFEE33FEED1A
:10028C0033FD020338E803F830E705C0F075F000E1
:10029C00EF2FFFEE33FEED33FD40B830E7C280AAFE
:1002AC0075F020800E75F010800575F0087D007ECD
:1002BC00007F003392D530D503120457EC33401035
:1002CC00EF33FFEE33FEED33FDEC33FCD5F0ED22D6
:0E02DC00E5F0247EA2D513CC92E7CDCEFF2212
:1002EA00EDD2E7CD33EC3392D524814006E4FFFE0C
:1002FA00FDFC22FCE4CFCECDCC24E0501174FF806B
:10030A00EDC3CC13CCCD13CDCE13CECF13CF047007
:07031A00F030D5DE020457AC
:10032100E9D2E7C933E833F892D5EDD2E7CD33EC22
:0703310033FC5002B2D5229B
:10033800EC30E7100FBF000C0EBE00080DBD000426
:100348000BEB6014A2D5EB13FCED92E7FD2274FFD2
:10035800FCFDFEFF22E480F8A2D574FF13FC7D802B
:03036800E480EF3F
:10067C00020855E493A3F8E493A34003F68001F237
:10068C0008DFF48029E493A3F85407240CC8C3337F
:10069C00C4540F4420C8834004F456800146F6DF4E
:1006AC00E4800B0102040810204080900B53E47E80
:1006BC00019360BCA3FF543F30E509541FFEE49343
:1006CC00A360010ECF54C025E060A840B8E493A30A
:1006DC00FAE493A3F8E493A3C8C582C8CAC583CA35
:1006EC00F0A3C8C582C8CAC583CADFE9DEE780BEED
:010B6D000087
:10036B00BB010CE58229F582E5833AF583E0225047
:10037B0006E92582F8E622BBFE06E92582F8E22291
:0D038B00E58229F582E5833AF583E49322AB
:10039800F8BB010DE58229F582E5833AF583E8F09B
:1003A800225006E92582C8F622BBFE05E92582C847
:0203B800F2222F
:1003BA00EF8DF0A4A8F0CF8CF0A428CE8DF0A42E57
:0203CA00FE2211
:1003CC00BC000BBE0029EF8DF084FFADF022E4CC15
:1003DC00F875F008EF2FFFEE33FEEC33FCEE9DECDE
:1003EC00984005FCEE9DFE0FD5F0E9E4CEFD22ED24
:1003FC00F8F5F0EE8420D21CFEADF075F008EF2F6E
:10040C00FFED33FD4007985006D5F0F222C398FD5E
:05041C000FD5F0EA22FB
:10042100C2D5EC30E709B2D5E4C39DFDE49CFCEEF6
:1004310030E715B2D5E4C39FFFE49EFE1203CCC39F
:10044100E49DFDE49CFC80031203CC30D507C3E49A
:060451009FFFE49EFE2265
:0E045700C3E49FFFE49EFEE49DFDE49CFC22B6
:00000001FF
