:1000000002075E48015001020408102040805001A0
:1000100040C0F9A4B0999282F880908883C6A186E6
:020020008E0050
:10002300020843E5A0541F44A0F5A07580AF53A078
:100033001FE5A0541F44C0F5A07580FF53A01FE522
:10004300A0541F44E0F5A07580FF53A01FE5A05402
:0C0053001F4480F5A07580FF53A01F2201
:100063000203CBE50D24F8F582E43400F583E005C3
:100073000D229000F53012039000F8E475F00112A0
:10008300064B020550200BE97F2ED20B8018EF544C
:100093000F2490D43440D4FF300F0BEF24BFB41A95
:1000A3000050032461FFE50E6002150E0511E511F2
:1000B3007002051030120E9000F5E475F00112067F
:1000C3004BEF020639020A7A7403D2128003E4C2A8
:1000D30012F50D9000F5120662E4F50EF510F51118
:1000E300E50E60077F201200A980F5750FFFC20C93
:1000F300C20BC20DC20EC210C211C213120075FF91
:10010300700D3012057F001200BAAF11AE1022B489
:10011300255FC2D5C20F120075FF24D0B40A005068
:100123001A75F00A780E30D50508B6FF0106C6A485
:1001330026F620D5047002D20E80D924CFB41A003B
:10014300EF5004C2E5D20F0202BBD20C80C6D20B21
:1001530080C0D20D80BCD2D580BAD21080B47F20AB
:100163001200A9200D077401B50E0040F1120066BC
:10017300FF1200A90200E3D213D211809512006688
:10018300FB120066FA120066F94A4B7006798C7A04
:10019300037BFF200D2EE50E602A7E008E82758381
:1001A3000012060C60060EEE650F70F0C2D5EBC0B0
:1001B300E0EAC0E0E9C0E0EE120302D0E0F9D0E0EB
:1001C300FAD0E0FB120550FF60AAEBC0E0EAC0E002
:1001D300E9C0E01200A9D0E02401F9D0E03400FA2C
:1001E300D0E0FBE50F0460DCD50FD980877BFF7A75
:1001F3000279FED20D809C791080027908C211C267
:10020300138008D2D5790A8004790AC2D5E50F0490
:100213007002F50FE4FAFDFEFF120066FC7B082076
:100223000C13120066FD7B10300B0A120066FE12DF
:100233000066FF7B20EC3382D592D55013C3E430A4
:100243000B069FFFE49EFEE4200C039DFDE49CFC53
:10025300E4CBF8C20CEC700CCFCECDCCE824F8F88C
:1002630070F38017C3EF33FFEE33FEED33FDEC3352
:10027300FCEB33FB994002FB0FD8E9EB300C05F89C
:10028300D0E0C448B20CC0E00AEC4D4E4F78207B5E
:100293000070C2EAB50F0040BCC0E0120304D0F006
:1002A300D0E0200C04C4C0E0C4B20CC0F012009231
:1002B300D0F0D5F0EB0200E312066B01805301FA94
:1002C3005801514C014D4201FE4F020644020649BA
:1002D300016643020C5501F04601F04501F0470366
:1002E300AC5001552D01592E017C2B015D23017A60
:1002F3002003952A011548000001743F3F3F007910
:100303000AA2D5200E14301009B910020404B9084A
:100313000104A2D5201102500104200D68920DB5ED
:100323000E005034C0E07F20300E197F30A20D72D2
:10033300117210500F12035BC20DC211C210C2130F
:100343007F30800F301003E9C0E01200A9301003A2
:10035300D0E0F9D0E0B50ECC3010177F30B9100CD7
:100363001200A97F58300F077F788003B908031262
:1003730000A9300D057F2D0200A97F202013F87FEF
:100383002B2011F322920D80CF286E756C6C2900FF
:10039300D20C120066300CF8C20C780E30D501086E
:1003A300F60201152D504349581200662403B40583
:1003B300004001E49003A79312009A743A12009A42
:1003C300D20E750E040201FAC0E0C0F0C083C082F1
:1003D300C0D075D000C000C001C002C003C004C0BB
:1003E30005C006C00790011DE0FCA3E0FDA3E0FEED
:1003F300A3E02401FFE43EFEE43DFDE43CFC900168
:100403001D1205CF900121E0FCA3E0FDA3E0FEA3B4
:10041300E02401FFE43EFEE43DFDE43CFC900121C9
:100423001205CF900125E0FCA3E0FDA3E0FEA3E0CD
:100433002401FFE43EFEE43DFDE43CFC9001251273
:1004430005CF900129E0FCA3E0FDA3E0FEA3E02497
:1004530001FFE43EFEE43DFDE43CFC90012912056E
:10046300CF90012DE0FCA3E0FDA3E0FEA3E0240177
:10047300FFE43EFEE43DFDE43CFC90012D1205CF7C
:10048300900131E0FCA3E0FDA3E0FEA3E02401FF23
:10049300E43EFEE43DFDE43CFC9001311205CF90C7
:1004A3000135E0FCA3E0FDA3E0FEA3E02401FFE4AB
:1004B3003EFEE43DFDE43CFC9001351205CF900186
:1004C30039E0FCA3E0FDA3E0FEA3E02401FFE43E4A
:1004D300FEE43DFDE43CFC9001391205CFE47F05C9
:1004E300FEFDFC90011DE0F8A3E0F9A3E0FAA3E010
:1004F300FBC31205BE700D1208EA90011D1205DB45
:1005030000000000E47F01FEFDFC900121E0F8A360
:10051300E0F9A3E0FAA3E0FBC31205BE7014900058
:1005230002E0FF7E001206919001211205DB00001C
:100533000000D007D006D005D004D003D002D001EC
:10054300D000D0D0D082D083D0F0D0E032BB01062F
:1005530089828A83E0225002E722BBFE02E32289DA
:10056300828A83E49322BC000BBE0029EF8DF084C2
:10057300FFADF022E4CCF875F008EF2FFFEE33FE69
:10058300EC33FCEE9DEC984005FCEE9DFE0FD5F0A0
:10059300E9E4CEFD22EDF8F5F0EE8420D21CFEADA9
:1005A300F075F008EF2FFFED33FD4007985006D5A7
:1005B300F0F222C398FD0FD5F0EA22EB9FF5F0EAA3
:1005C3009E42F0E99D42F0E89C45F022ECF0A3ED59
:1005D300F0A3EEF0A3EFF022A8828583F0D083D0BE
:1005E300821205F21205F21205F21205F2E473E427
:1005F30093A3C583C5F0C583C8C582C8F0A3C583CB
:10060300C5F0C583C8C582C822BB010CE58229F5A4
:1006130082E5833AF583E0225006E92582F8E62253
:10062300BBFE06E92582F8E222E58229F582E5830D
:100633003AF583E49322BB010689828A83F0225030
:1006430002F722BBFE01F322F8E0FBA3A3E0F925A6
:10065300F0F0E582158270021583E0FA38F022EBA0
:10066300F0A3EAF0A3E9F022D083D082F8E49370F8
:1006730012740193700DA3A393F8740193F5828808
:1006830083E4737402936860EFA3A3A380DFAB07D3
:10069300AA067C007D6412056990013DEFF07C00A1
:1006A3007D64AF03AE021205697E007F0ACFCDCF12
:1006B300CECCCE120569A3EFF0AE02AF037C007D72
:1006C3000A120569A3EDF0E5A0541F44C0F5A07517
:1006D30080FF53A01FE5A0541F44E0F5A07580FFE1
:1006E30053A01FE5A0541F44C0F5A09000CCE02404
:1006F30050F582E43401F583E0F58053A01F9000A8
:10070300CCE014601414601E24027034E5A0541F5E
:1007130044E0F5A090013D8018E5A0541F44E0F5A6
:10072300A090013E800BE5A0541F44E0F5A090018A
:100733003FE02440F582E43401F583E0F580800B4B
:10074300E5A0541F44E0F5A07580FF53A01F90005F
:10075300CCE004F0E0B40802E4F022787FE4F6D8B9
:10076300FD7581220207A5020A82E493A3F8E493AC
:10077300A34003F68001F208DFF48029E493A3F891
:100783005407240CC8C333C4540F4420C883400403
:10079300F456800146F6DFE4800B010204081020C2
:1007A3004080900003E47E019360BCA3FF543F307C
:1007B300E509541FFEE493A360010ECF54C025E066
:1007C30060A840B8E493A3FAE493A3F8E493A3C81E
:1007D300C582C8CAC583CAF0A3C8C582C8CAC583AF
:1007E300CADFE9DEE780BE120A48900000EFF0900E
:1007F30000CAE0FCA3E02402F58274003CF583EF19
:10080300F09000CAE0FEA3E02401F58274003EF5F7
:1008130083E0B40D1C9000CAE0FEA3E02402F5823D
:1008230074003EF583E0B40A08E49000CAF0A3F034
:10083300229000CBE004F070069000CAE004F0229E
:10084300C0E0C0F0C083C082C0D075D000C000C07B
:1008530001C002C003C004C005C006C00730980F22
:10086300C298900001E054FDF01207EA12093030FB
:100873009909C299900001E054FEF0D007D006D048
:1008830005D004D003D002D001D000D0D0D082D084
:1008930083D0F0D0E03290011D1205DB0000000090
:1008A3009001211205DB000000009001251205DBF9
:1008B300000000009001291205DB000000009001F8
:1008C3002D1205DB000000009001311205DB000052
:1008D30000009001351205DB000000009001391281
:1008E30005DB000000002212099A9200900002E04A
:1008F300540F90015BF0200007E090015AF0800E46
:1009030030000B90015BE0C454F0900159F090016A
:100913005AE0FF900159E02FFF900158F0E5A054F1
:100923001F4480F5A0EFF4F58053A01F229000022E
:10093300E0B4C0369000CAE07002A3E0702C9000CF
:10094300F874FFF0A3740AF0A37487F0A374FFF0A4
:10095300A3740AF0A3748AF07B017A00796612000B
:10096300CB7B017A0079661209F522120A0B120A6F
:1009730071120A65120A219000F874FFF0A3740A39
:10098300F0A374A5F07B017A0079661200CB7B019A
:100993007A0079660209F5900002E054F0C4540F1E
:1009A300FF90015BF0BF0A04C201800990015BE084
:1009B300B40B02D201A20122900001E054FEF054D4
:1009C300FDF0E49000CAF0A3F0FF7E63900002E420
:1009D300F0A3DEFC22759850438E40538EFE53895C
:1009E3000F758BC8758DFEC2ABD28ED2ACD2BCD282
:1009F300AF221205506010F5993099FDC299740128
:100A030029F9E43AFA80EB22E4F594F593F592F5AB
:100A130091F596F595F5B2F5B1F5B4F5B32200006D
:100A2300750D17750ECD750F78D50FFDD50EFAD54B
:100A33000DF722438E0475D72075D6D1438E10430C
:100A4300AF04D2AF22AD99900001E020E1F9440256
:100A5300F0AF0522E4900158F0A3F0A3F0A3F0A3B4
:100A6300F02243BA80120A361209D802002612086D
:100A7300991209BB020A578F993099FDC299221224
:100A8300096E80FE2573005468652053797374657D
:100A93006D2069732052756E6E696E672E2E2E0D52
:100AA3000A0057656C636F6D6520746F20584D465F
:0A0AB3002073797374656D0D0A005D
:00000001FF
