:1000CA007C007F041200161200DB7DFF7F04120001
:0100DA00160F
:0E00DB0000007F177ECD7D78DDFEDEFCDFFAB3
:0100E90022F4
:10001600EF24FB601414601B14602224037026E591
:10002600A0541F4480F5A0801CE5A0541F44A0F5F1
:10003600A08012E5A0541F44C0F5A08008E5A05496
:0B0046001F44E0F5A08D8053A01F2296
:0B00EA00D2B2D2B3D2A8D2AAD2AF2269
:03000300020051A7
:10005100C0E0C0D075D000C003C004C005C006C058
:010061000797
:0B006200E4FB7DFE1200CA0BBB03F79D
:0F006D00D007D006D005D004D003D0D0D0E032D9
:0300130002007C6C
:10007C00C0E0C0D075D000C003C004C005C006C02D
:01008C00076C
:0B008D00E4FB7D7F1200CA0BBB03F7F1
:0F009800D007D006D005D004D003D0D0D0E032AE
:1000A700E4FB1200EAE4FB74FF7E00A80308800566
:1000B700C333CE33CED8F9FDAC061200D60BBB093D
:0300C700E680E2EE
:03000000020006F5
:0C000600787FE4F6D8FD7581070200A7A2
:00000001FF
