:03000000020141B9
:0C014100787FE4F6D8FD75812702018864
:10037400E4F594F593F592F591F596F595F5B2F5C6
:10038400B1F5B4F5B3F5CAF5C9F5CCF5CBF5E2F59D
:07039400E1120003D2AF22C9
:10000300538EBF53890F758B18758DFCC28FD28E9B
:03001300D2AB224B
:1002AB00EF24FC601114601714601D1460232407E5
:1002BB00702753A01F22E5A0541F4480F5A022E510
:1002CB00A0541F44A0F5A022E5A0541F44C0F5A0E4
:0A02DB0022E5A0541F44E0F5A02224
:100349003F065B4F666D7D077F6F777C395E7971FC
:100359000040761E7038375C733E783D6750376EC3
:0B036900BF86DBCFE6EDFD87FFEF460F
:1003C100080E0000000000000000081600000000F8
:0A03D100000000000109FF010DFF0C
:10021D00740E250AF8E66011AF0AA807740108806C
:10022D0002C333D8FC42088010AF0AA80774010836
:10023D008002C333D8FCF45208E50965086012E565
:10024D0008F4F5807F041202ABE4FF1202AB8508BF
:08025D0009E50A045407F50A43
:010265002276
:100266007580FF7F071202ABE4FF1202ABAF0BA84B
:10027600077401088002C333D8FCF5807F0612029A
:10028600ABE4FF1202AB7416250BF8E69003499314
:10029600F4F5807F071202ABE4FF1202ABE50B0414
:0402A6005407F50BF9
:0102AA002231
:1002E50030000FA8077401088002C333D8FC420C04
:1002F500800EA8077401088002C333D8FCF4520CA1
:10030500E50C650D6010850C807F051202ABE4FFDE
:060315001202AB850C0D85
:01031B0022BF
:10001E0075B00FC2C2C2C4A2C292B6A2C492B7E554
:10002E00B0540FF51EE52714602214700302010A66
:10003E0014700302012D2403600302013EE51E64C9
:10004E000F700302013E75270102013EE51EB40F3B
:10005E0003020105E51E44F0F5B0D2C2D2C4A2C21D
:10006E0092B6A2C492B785B01E752702E51E120382
:10007E009B00B37700B97B00BF7D00C47E00C9B77B
:10008E0000CEBB00D3BD00D8BE00DDD700E2DB0042
:10009E00E7DD00ECDE00F1E700F6EB00FBED010022
:1000AE00EE0000010575260402013E7526050201CB
:1000BE003E752606807A752607807575260880702F
:1000CE00752609806B75260A806675260B8061750C
:1000DE00260C805C75260D805775260E805275266F
:1000EE000F804D7526108048752611804375261297
:1000FE00803E7526138039E4F5278034E51E640FA3
:10010E0060110525E525D394644025E4F525752772
:10011E0003801DE4F525F52785261FF5268011E5BC
:10012E001EB40F0CE4F527E5262414F51FE4F5267E
:02013E00AF1FF1
:01014000229C
:1003DC00120374E521B45A0612031CE4F521E5233B
:0B03EC00B414F01203F7E4F52380E8DE
:03001B000201CD12
:1001CD00C0E0C0F0C083C082C0D075D000C000C0F8
:1001DD0001C002C003C004C005C006C007120266FC
:1001ED0012021DE521C3945A50020521E523C39443
:1001FD001450020523D007D006D005D004D003D06B
:10020D0002D001D000D0D0D082D083D0F0D0E03257
:10031C00E5247028E52275F00A8475F00A8485F0CE
:10032C0016E52275F00A8485F01775180375190403
:0D033C00751A05751B06751C07751D082236
:0603F70012001E8F2222FD
:10014D000203DCE493A3F8E493A34003F68001F2E9
:10015D0008DFF48029E493A3F85407240CC8C333B3
:10016D00C4540F4420C8834004F456800146F6DF82
:10017D00E4800B01020408102040809003C1E47E4E
:10018D00019360BCA3FF543F30E509541FFEE49377
:10019D00A360010ECF54C025E060A840B8E493A33E
:1001AD00FAE493A3F8E493A3C8C582C8CAC583CA69
:1001BD00F0A3C8C582C8CAC583CADFE9DEE780BE21
:0103DB000021
:10039B00D083D082F8E4937012740193700DA3A3F1
:1003AB0093F8740193F5828883E473740293686005
:0603BB00EFA3A3A380DF05
:00000001FF
