:0300000002019169
:0C019100787FE4F6D8FD7581390201D8B2
:10050400E4F594F593F592F591F596F595F5B2F534
:10051400B1F5B4F5B3F5CAF5C9F5CCF5CBF5E2F50B
:07052400E112054BD2AF22EA
:10054B00538EBF53890F758B18758DFCC28FD28E4E
:03055B00D2AB22FE
:10040200EF24FC601114601714601D14602324078C
:10041200702753A01F22E5A0541F4480F5A022E5B7
:10042200A0541F44A0F5A022E5A0541F44C0F5A08B
:0A04320022E5A0541F44E0F5A022CB
:1004D9003F065B4F666D7D077F6F777C395E79716B
:1004E9000040761E7038375C733E783D6750376E32
:0B04F900BF86DBCFE6EDFD87FFEF467E
:10052B000821000000000000000008290000000066
:0A053B00000000000112FF0116FF8E
:1003310074212513F8E66011AF13A8077401088032
:1003410002C333D8FC42118010AF13A8077401080F
:100351008002C333D8FCF45211E51265116012E535
:1003610011F4F5807F04120402E4FF1204028511E6
:0803710012E513045407F51313
:010379002261
:10037A007580FF7F07120402E4FF120402AF14A87B
:10038A00077401088002C333D8FCF5807F06120483
:10039A0002E4FF12040274292514F8E69004D993A2
:1003AA00F4F5807F07120402E4FF120402E5140444
:0403BA005407F514DB
:0103BE00221C
:10043C0030000FA8077401088002C333D8FC4215A2
:10044C00800EA8077401088002C333D8FCF452153F
:10045C00E515651660108515807F05120402E4FF12
:06046C00120402851516C2
:010472002267
:10001E00751AFF751B6375B00FC2C2C2C4A2C2921D
:10002E00B6A2C492B7E5B0540FF51AE519146022C2
:10003E001470030200CC1470030200EF240360035B
:10004E00020100E51A640F70030201007519010226
:10005E000100E51AB40F028060E51A44F0F5B0D243
:10006E00C2D2C4A2C292B6A2C492B785B01A7519F2
:10007E0002E51A2485601F24FE6020146022249756
:10008E00602324FC602424FE6025146027247770EE
:10009E0028751804805C75180580577518068052EF
:1000AE00751807804D7518108048751811804375A6
:1000BE001812803E7518138039E4F5198034E51A4C
:1000CE00640F60110517E517D394644025E4F51706
:1000DE00751903801DE4F517F51985181BF51880A1
:1000EE0011E51AB40F0CE4F519E5182414F51BE408
:0400FE00F518AF1B27
:0101020022DA
:050545000333555923AA
:1003BF001205047B007A0079331204A7E47837F62C
:1003CF0008F608F67832E6641418467006F608F652
:1003DF0012021DE50D641E450C7007F50CF50D128C
:1003EF00055EE50B6464450A70DAF50AF50B120534
:0303FF00B080D1FA
:03001B00020103DC
:10010300C0E0C0F0C083C082C0D075D000C000C0C2
:0D01130001C002C003C004C005C006C00743
:100120000509E50970020508C394B8E508940B4079
:100130000675080075090012037A120331C378327C
:10014000E6941418E6940050070806E618700106B5
:10015000C3E50D941EE50C94005008050DE50D70E7
:1001600002050CC3E50B9464E50A94005008050BE6
:06017000E50B7002050A18
:10017600D007D006D005D004D003D002D001D000DD
:0B018600D0D0D082D083D0F0D0E03287
:10021D00E50E1460250470707836E6646360077827
:10022D0029A60F08A610782B760308760408760504
:10023D00087606087607087608227839E6FF75F005
:10024D000A8475F00A847829A6F0EF75F00A8408FF
:10025D00A6F00876117838E6FF75F00A8475F00A75
:10026D0084782CA6F0EF75F00A8408A6F0087611B4
:10027D007837E6FF75F00A8475F00A84782FA6F0BA
:09028D00EF75F00A8408A6F022C6
:10055E0012001E7836EFF624FC7007E50E045401E7
:03056E00F50E2265
:0905B0007B007A0079370202E5B4
:0E05A20080828486888A8C81838587898B8DF0
:10057100E4FEC297EF1392A3EFC313FFD2970EBE0F
:0205810008F080
:010583002255
:10000300C29300C29700D29300120571AF05120587
:0400130071C2932201
:10047300E4FDC29300C29700D29300120571E4FF1A
:10048300C297EDC313FD30A303430580D2970FBF7B
:1004930008EEC29300C29700D29700C2A300D2A372
:0304A30000AF05A2
:0104A6002233
:0F058400EFC4540F75F00AA4FEEF540F2EFF22A0
:0F059300EFC4540F75F00AA4FEEF540F2EFF2291
:0604A7008B1A8A1B891C60
:1004AD00E4FD7F8E120003E4FCEC9005A293FFABFC
:1004BD001AAA1BA91C8C82758300120296FD1200CC
:0C04CD00030CBC03E47D807F8E02000362
:0602E5008B1A8A1B891C24
:1002EB00E4FCEC9005A993FF120473AB1AAA1BA9AB
:1002FB001C8C82758300EF1202C30CBC03E4E4FC7C
:10030B00AB1AAA1BA91C8C82758300120296FF12D2
:10031B000593AB1AAA1BA91C8C82758300EF1202E2
:05032B00C30CBC03DB64
:0103300022AA
:10019D000203BFE493A3F8E493A34003F68001F2B6
:1001AD0008DFF48029E493A3F85407240CC8C33363
:1001BD00C4540F4420C8834004F456800146F6DF32
:1001CD00E4800B010204081020408090052BE47E92
:1001DD00019360BCA3FF543F30E509541FFEE49327
:1001ED00A360010ECF54C025E060A840B8E493A3EE
:1001FD00FAE493A3F8E493A3C8C582C8CAC583CA19
:10020D00F0A3C8C582C8CAC583CADFE9DEE780BED0
:01054A0000B0
:10029600BB010CE58229F582E5833AF583E022501D
:1002A60006E92582F8E622BBFE06E92582F8E22267
:0D02B600E58229F582E5833AF583E4932281
:1002C300F8BB010DE58229F582E5833AF583E8F071
:1002D300225006E92582C8F622BBFE05E92582C81D
:0202E300F22205
:00000001FF
