:03032100012500B3
:1001A400E4FFE5B0540FFEE52514601114602C241F
:1001B40002702EEE640F60297525018024EE640F11
:1001C400601CBE07027F04BE0B027F05BE0D027FCA
:1001D40006BE0E027F077525028006BE0F03E4F5F6
:0101E40025F5
:0101E50022F7
:0E03320068656C6C6F20776F726C640D0A004A
:030324000124FFB2
:1002250012025F1202F712030C300107C20112011C
:10023500A48F2330020BC2027BFF7A0379321202AC
:10024500CB3000E5C200C2A9852480E5A0541F4437
:0A02550080F5A053A01FD2A980CFAE
:03000B000200B23E
:1000B200C0E0C0F0C083C082C0D075D000C000C014
:1000C20001C002C003C004C005C006C0071201E699
:1000D2000522E52270020521AE21FF7C007D14126B
:1000E200014FED4C7002D201AE21AF227C007D3275
:1000F20012014FED4C7002D200AE21AF227C007D86
:10010200C812014FED4C7002D202AE21AF227C0325
:100112007DE812014F8C218D22D007D006D005D068
:1001220004D003D002D001D000D0D0D082D083D06E
:04013200F0D0E032F7
:0300230002034095
:09034000309805C2988599243219
:10025F007580FFE5A0541F4480F5A053A01F758043
:10026F00AFE5A0541F44A0F5A053A01F7580FFE574
:10027F00A0541F44C0F5A053A01F7580FFE5A054E4
:09028F001F44E0F5A053A01F225A
:10000E00EF1FAC0670011E4C600A7D0C7CA9DCFE55
:04001E00DDFC80EC99
:0100220022BB
:1002F700538E7F5389F0758A18758CFCC28DD28C0A
:05030700D2A9D2AF22D3
:10030C00759850438E01438E0475D78F75D6FD4377
:05031C008E10D2AC229E
:1002CB001201366010F5993099FDC299740129F924
:0602DB00E43AFA80EB2278
:100298003F065B4F666D7D077F6F777C395E7971AE
:1002A8000040761E7038375C733E783D6750376E75
:1002B800BF86DBCFE6EDFD87FFEF4601020408109D
:0302C80020408053
:0A032700081810101010101010102C
:1001E6007580FFE5A0541F44E0F5A053A01FE51756
:1001F6009002C393F580E5A0541F44C0F5A053A018
:100206001F74182517F8E690029893F4F580E5A078
:0E021600541F44E0F5A053A01F05175317070F
:0102240022B7
:1002E1008F188D198B1A850E1B85101C85121D8583
:0602F100141E85161F22F9
:03000000020026D5
:0C002600787FE4F6D8FD75812502006D9E
:10013600BB010689828A83E0225002E722BBFE02C7
:09014600E32289828A83E49322FA
:10014F00BC000BBE0029EF8DF084FFADF022E4CC94
:10015F00F875F008EF2FFFEE33FEEC33FCEE9DEC5D
:10016F00984005FCEE9DFE0FD5F0E9E4CEFD22EDA3
:10017F00F8F5F0EE8420D21CFEADF075F008EF2FED
:10018F00FFED33FD4007985006D5F0F222C398FDDE
:05019F000FD5F0EA227B
:10003200020225E493A3F8E493A34003F68001F2BD
:1000420008DFF48029E493A3F85407240CC8C333CF
:10005200C4540F4420C8834004F456800146F6DF9E
:10006200E4800B0102040810204080900321E47E0A
:10007200019360BCA3FF543F30E509541FFEE49393
:10008200A360010ECF54C025E060A840B8E493A35A
:10009200FAE493A3F8E493A3C8C582C8CAC583CA85
:1000A200F0A3C8C582C8CAC583CADFE9DEE780BE3D
:0103310000CB
:00000001FF
